{
  "contractName": "BatchTransfer",
  "abi": [
    {
      "inputs": [],
      "stateMutability": "nonpayable",
      "type": "constructor"
    },
    {
      "anonymous": false,
      "inputs": [
        {
          "indexed": true,
          "internalType": "address",
          "name": "owner",
          "type": "address"
        },
        {
          "indexed": true,
          "internalType": "address",
          "name": "approved",
          "type": "address"
        },
        {
          "indexed": true,
          "internalType": "uint256",
          "name": "tokenId",
          "type": "uint256"
        }
      ],
      "name": "Approval",
      "type": "event"
    },
    {
      "anonymous": false,
      "inputs": [
        {
          "indexed": true,
          "internalType": "address",
          "name": "owner",
          "type": "address"
        },
        {
          "indexed": true,
          "internalType": "address",
          "name": "operator",
          "type": "address"
        },
        {
          "indexed": false,
          "internalType": "bool",
          "name": "approved",
          "type": "bool"
        }
      ],
      "name": "ApprovalForAll",
      "type": "event"
    },
    {
      "anonymous": false,
      "inputs": [
        {
          "indexed": true,
          "internalType": "address",
          "name": "from",
          "type": "address"
        },
        {
          "indexed": true,
          "internalType": "address",
          "name": "to",
          "type": "address"
        },
        {
          "indexed": true,
          "internalType": "uint256",
          "name": "tokenId",
          "type": "uint256"
        }
      ],
      "name": "Transfer",
      "type": "event"
    },
    {
      "inputs": [
        {
          "internalType": "address",
          "name": "to",
          "type": "address"
        },
        {
          "internalType": "uint256",
          "name": "tokenId",
          "type": "uint256"
        }
      ],
      "name": "approve",
      "outputs": [],
      "stateMutability": "nonpayable",
      "type": "function"
    },
    {
      "inputs": [
        {
          "internalType": "address",
          "name": "owner",
          "type": "address"
        }
      ],
      "name": "balanceOf",
      "outputs": [
        {
          "internalType": "uint256",
          "name": "",
          "type": "uint256"
        }
      ],
      "stateMutability": "view",
      "type": "function",
      "constant": true
    },
    {
      "inputs": [
        {
          "internalType": "uint256",
          "name": "tokenId",
          "type": "uint256"
        }
      ],
      "name": "getApproved",
      "outputs": [
        {
          "internalType": "address",
          "name": "",
          "type": "address"
        }
      ],
      "stateMutability": "view",
      "type": "function",
      "constant": true
    },
    {
      "inputs": [
        {
          "internalType": "address",
          "name": "owner",
          "type": "address"
        },
        {
          "internalType": "address",
          "name": "operator",
          "type": "address"
        }
      ],
      "name": "isApprovedForAll",
      "outputs": [
        {
          "internalType": "bool",
          "name": "",
          "type": "bool"
        }
      ],
      "stateMutability": "view",
      "type": "function",
      "constant": true
    },
    {
      "inputs": [],
      "name": "name",
      "outputs": [
        {
          "internalType": "string",
          "name": "",
          "type": "string"
        }
      ],
      "stateMutability": "view",
      "type": "function",
      "constant": true
    },
    {
      "inputs": [
        {
          "internalType": "uint256",
          "name": "tokenId",
          "type": "uint256"
        }
      ],
      "name": "ownerOf",
      "outputs": [
        {
          "internalType": "address",
          "name": "",
          "type": "address"
        }
      ],
      "stateMutability": "view",
      "type": "function",
      "constant": true
    },
    {
      "inputs": [
        {
          "internalType": "address",
          "name": "from",
          "type": "address"
        },
        {
          "internalType": "address",
          "name": "to",
          "type": "address"
        },
        {
          "internalType": "uint256",
          "name": "tokenId",
          "type": "uint256"
        }
      ],
      "name": "safeTransferFrom",
      "outputs": [],
      "stateMutability": "nonpayable",
      "type": "function"
    },
    {
      "inputs": [
        {
          "internalType": "address",
          "name": "from",
          "type": "address"
        },
        {
          "internalType": "address",
          "name": "to",
          "type": "address"
        },
        {
          "internalType": "uint256",
          "name": "tokenId",
          "type": "uint256"
        },
        {
          "internalType": "bytes",
          "name": "_data",
          "type": "bytes"
        }
      ],
      "name": "safeTransferFrom",
      "outputs": [],
      "stateMutability": "nonpayable",
      "type": "function"
    },
    {
      "inputs": [
        {
          "internalType": "address",
          "name": "operator",
          "type": "address"
        },
        {
          "internalType": "bool",
          "name": "approved",
          "type": "bool"
        }
      ],
      "name": "setApprovalForAll",
      "outputs": [],
      "stateMutability": "nonpayable",
      "type": "function"
    },
    {
      "inputs": [
        {
          "internalType": "bytes4",
          "name": "interfaceId",
          "type": "bytes4"
        }
      ],
      "name": "supportsInterface",
      "outputs": [
        {
          "internalType": "bool",
          "name": "",
          "type": "bool"
        }
      ],
      "stateMutability": "view",
      "type": "function",
      "constant": true
    },
    {
      "inputs": [],
      "name": "symbol",
      "outputs": [
        {
          "internalType": "string",
          "name": "",
          "type": "string"
        }
      ],
      "stateMutability": "view",
      "type": "function",
      "constant": true
    },
    {
      "inputs": [
        {
          "internalType": "uint256",
          "name": "tokenId",
          "type": "uint256"
        }
      ],
      "name": "tokenURI",
      "outputs": [
        {
          "internalType": "string",
          "name": "",
          "type": "string"
        }
      ],
      "stateMutability": "view",
      "type": "function",
      "constant": true
    },
    {
      "inputs": [
        {
          "internalType": "address",
          "name": "from",
          "type": "address"
        },
        {
          "internalType": "address",
          "name": "to",
          "type": "address"
        },
        {
          "internalType": "uint256",
          "name": "tokenId",
          "type": "uint256"
        }
      ],
      "name": "transferFrom",
      "outputs": [],
      "stateMutability": "nonpayable",
      "type": "function"
    },
    {
      "inputs": [],
      "name": "getMessage",
      "outputs": [
        {
          "internalType": "string",
          "name": "",
          "type": "string"
        }
      ],
      "stateMutability": "view",
      "type": "function",
      "constant": true
    },
    {
      "inputs": [
        {
          "internalType": "string",
          "name": "newMessage",
          "type": "string"
        }
      ],
      "name": "setMessage",
      "outputs": [],
      "stateMutability": "nonpayable",
      "type": "function"
    },
    {
      "inputs": [
        {
          "internalType": "address",
          "name": "_addr",
          "type": "address"
        },
        {
          "internalType": "address",
          "name": "_owner",
          "type": "address"
        }
      ],
      "name": "getBalance",
      "outputs": [
        {
          "internalType": "uint256",
          "name": "",
          "type": "uint256"
        }
      ],
      "stateMutability": "view",
      "type": "function",
      "constant": true
    },
    {
      "inputs": [
        {
          "internalType": "address",
          "name": "_addr",
          "type": "address"
        },
        {
          "internalType": "address",
          "name": "_from",
          "type": "address"
        },
        {
          "internalType": "address",
          "name": "_to",
          "type": "address"
        },
        {
          "internalType": "uint256",
          "name": "_tokenid",
          "type": "uint256"
        }
      ],
      "name": "singleTransfer",
      "outputs": [],
      "stateMutability": "nonpayable",
      "type": "function"
    },
    {
      "inputs": [
        {
          "internalType": "string[]",
          "name": "addr_tokenid_list",
          "type": "string[]"
        },
        {
          "internalType": "address",
          "name": "_from",
          "type": "address"
        },
        {
          "internalType": "address",
          "name": "_to",
          "type": "address"
        }
      ],
      "name": "batchTransfer",
      "outputs": [],
      "stateMutability": "nonpayable",
      "type": "function"
    }
  ],
  "bytecode": "0x6080604052604051806060016040528060238152602001620039e7602391396006908051906020019062000035929190620000ea565b503480156200004357600080fd5b506040518060400160405280600d81526020017f42617463685472616e73666572000000000000000000000000000000000000008152506040518060400160405280600381526020017f42545300000000000000000000000000000000000000000000000000000000008152508160009080519060200190620000c8929190620000ea565b508060019080519060200190620000e1929190620000ea565b505050620001ff565b828054620000f8906200019a565b90600052602060002090601f0160209004810192826200011c576000855562000168565b82601f106200013757805160ff191683800117855562000168565b8280016001018555821562000168579182015b82811115620001675782518255916020019190600101906200014a565b5b5090506200017791906200017b565b5090565b5b80821115620001965760008160009055506001016200017c565b5090565b60006002820490506001821680620001b357607f821691505b60208210811415620001ca57620001c9620001d0565b5b50919050565b7f4e487b7100000000000000000000000000000000000000000000000000000000600052602260045260246000fd5b6137d8806200020f6000396000f3fe608060405234801561001057600080fd5b50600436106101165760003560e01c806392dc12d5116100a2578063b9bd519511610071578063b9bd5195146102db578063c87b56dd146102f7578063ce6d41de14610327578063d4fac45d14610345578063e985e9c51461037557610116565b806392dc12d51461026957806395d89b4114610285578063a22cb465146102a3578063b88d4fde146102bf57610116565b806323b872dd116100e957806323b872dd146101b5578063368b8772146101d157806342842e0e146101ed5780636352211e1461020957806370a082311461023957610116565b806301ffc9a71461011b57806306fdde031461014b578063081812fc14610169578063095ea7b314610199575b600080fd5b6101356004803603810190610130919061285b565b6103a5565b604051610142919061301e565b60405180910390f35b610153610487565b6040516101609190613039565b60405180910390f35b610183600480360381019061017e91906128ee565b610519565b6040516101909190612f6d565b60405180910390f35b6101b360048036038101906101ae91906127b8565b61059e565b005b6101cf60048036038101906101ca91906126b2565b6106b6565b005b6101eb60048036038101906101e691906128ad565b610716565b005b610207600480360381019061020291906126b2565b610730565b005b610223600480360381019061021e91906128ee565b610750565b6040516102309190612f6d565b60405180910390f35b610253600480360381019061024e91906125ea565b610802565b604051610260919061321b565b60405180910390f35b610283600480360381019061027e91906127f4565b6108ba565b005b61028d610b55565b60405161029a9190613039565b60405180910390f35b6102bd60048036038101906102b8919061277c565b610be7565b005b6102d960048036038101906102d49190612701565b610d68565b005b6102f560048036038101906102f0919061264f565b610dca565b005b610311600480360381019061030c91906128ee565b610f45565b60405161031e9190613039565b60405180910390f35b61032f610fec565b60405161033c9190613039565b60405180910390f35b61035f600480360381019061035a9190612613565b61107e565b60405161036c919061321b565b60405180910390f35b61038f600480360381019061038a9190612613565b611106565b60405161039c919061301e565b60405180910390f35b60007f80ac58cd000000000000000000000000000000000000000000000000000000007bffffffffffffffffffffffffffffffffffffffffffffffffffffffff1916827bffffffffffffffffffffffffffffffffffffffffffffffffffffffff1916148061047057507f5b5e139f000000000000000000000000000000000000000000000000000000007bffffffffffffffffffffffffffffffffffffffffffffffffffffffff1916827bffffffffffffffffffffffffffffffffffffffffffffffffffffffff1916145b80610480575061047f8261119a565b5b9050919050565b606060008054610496906135cd565b80601f01602080910402602001604051908101604052809291908181526020018280546104c2906135cd565b801561050f5780601f106104e45761010080835404028352916020019161050f565b820191906000526020600020905b8154815290600101906020018083116104f257829003601f168201915b5050505050905090565b600061052482611204565b610563576040517f08c379a000000000000000000000000000000000000000000000000000000000815260040161055a9061313b565b60405180910390fd5b6004600083815260200190815260200160002060009054906101000a900473ffffffffffffffffffffffffffffffffffffffff169050919050565b60006105a982610750565b90508073ffffffffffffffffffffffffffffffffffffffff168373ffffffffffffffffffffffffffffffffffffffff16141561061a576040517f08c379a00000000000000000000000000000000000000000000000000000000081526004016106119061319b565b60405180910390fd5b8073ffffffffffffffffffffffffffffffffffffffff16610639611270565b73ffffffffffffffffffffffffffffffffffffffff161480610668575061066781610662611270565b611106565b5b6106a7576040517f08c379a000000000000000000000000000000000000000000000000000000000815260040161069e906130db565b60405180910390fd5b6106b18383611278565b505050565b6106c76106c1611270565b82611331565b610706576040517f08c379a00000000000000000000000000000000000000000000000000000000081526004016106fd906131db565b60405180910390fd5b61071183838361140f565b505050565b806006908051906020019061072c9291906122da565b5050565b61074b83838360405180602001604052806000815250610d68565b505050565b6000806002600084815260200190815260200160002060009054906101000a900473ffffffffffffffffffffffffffffffffffffffff169050600073ffffffffffffffffffffffffffffffffffffffff168173ffffffffffffffffffffffffffffffffffffffff1614156107f9576040517f08c379a00000000000000000000000000000000000000000000000000000000081526004016107f09061311b565b60405180910390fd5b80915050919050565b60008073ffffffffffffffffffffffffffffffffffffffff168273ffffffffffffffffffffffffffffffffffffffff161415610873576040517f08c379a000000000000000000000000000000000000000000000000000000000815260040161086a906130fb565b60405180910390fd5b600360008373ffffffffffffffffffffffffffffffffffffffff1673ffffffffffffffffffffffffffffffffffffffff168152602001908152602001600020549050919050565b600073ffffffffffffffffffffffffffffffffffffffff168173ffffffffffffffffffffffffffffffffffffffff16141561092a576040517f08c379a0000000000000000000000000000000000000000000000000000000008152600401610921906131fb565b60405180910390fd5b600115153373ffffffffffffffffffffffffffffffffffffffff168373ffffffffffffffffffffffffffffffffffffffff161415151461099f576040517f08c379a0000000000000000000000000000000000000000000000000000000008152600401610996906131bb565b60405180910390fd5b60005b8351811015610b4f576000610a2c8583815181106109e9577f4e487b7100000000000000000000000000000000000000000000000000000000600052603260045260246000fd5b60200260200101516040518060400160405280600281526020017f2c2000000000000000000000000000000000000000000000000000000000000081525061166b565b90506000610a7782600060028110610a6d577f4e487b7100000000000000000000000000000000000000000000000000000000600052603260045260246000fd5b6020020151611b37565b90506000610ac283600160028110610ab8577f4e487b7100000000000000000000000000000000000000000000000000000000600052603260045260246000fd5b6020020151611e50565b905060008290508073ffffffffffffffffffffffffffffffffffffffff1663b88d4fde8888856040518463ffffffff1660e01b8152600401610b0693929190612fd4565b600060405180830381600087803b158015610b2057600080fd5b505af1158015610b34573d6000803e3d6000fd5b50505050505050508080610b47906135ff565b9150506109a2565b50505050565b606060018054610b64906135cd565b80601f0160208091040260200160405190810160405280929190818152602001828054610b90906135cd565b8015610bdd5780601f10610bb257610100808354040283529160200191610bdd565b820191906000526020600020905b815481529060010190602001808311610bc057829003601f168201915b5050505050905090565b610bef611270565b73ffffffffffffffffffffffffffffffffffffffff168273ffffffffffffffffffffffffffffffffffffffff161415610c5d576040517f08c379a0000000000000000000000000000000000000000000000000000000008152600401610c549061309b565b60405180910390fd5b8060056000610c6a611270565b73ffffffffffffffffffffffffffffffffffffffff1673ffffffffffffffffffffffffffffffffffffffff16815260200190815260200160002060008473ffffffffffffffffffffffffffffffffffffffff1673ffffffffffffffffffffffffffffffffffffffff16815260200190815260200160002060006101000a81548160ff0219169083151502179055508173ffffffffffffffffffffffffffffffffffffffff16610d17611270565b73ffffffffffffffffffffffffffffffffffffffff167f17307eab39ab6107e8899845ad3d59bd9653f200f220920489ca2b5937696c3183604051610d5c919061301e565b60405180910390a35050565b610d79610d73611270565b83611331565b610db8576040517f08c379a0000000000000000000000000000000000000000000000000000000008152600401610daf906131db565b60405180910390fd5b610dc484848484611f0b565b50505050565b600073ffffffffffffffffffffffffffffffffffffffff168273ffffffffffffffffffffffffffffffffffffffff161415610e3a576040517f08c379a0000000000000000000000000000000000000000000000000000000008152600401610e31906131fb565b60405180910390fd5b600115153373ffffffffffffffffffffffffffffffffffffffff168473ffffffffffffffffffffffffffffffffffffffff1614151514610eaf576040517f08c379a0000000000000000000000000000000000000000000000000000000008152600401610ea6906131bb565b60405180910390fd5b610eca83838360405180602001604052806000815250610d68565b60008490508073ffffffffffffffffffffffffffffffffffffffff1663b88d4fde8585856040518463ffffffff1660e01b8152600401610f0c93929190612fd4565b600060405180830381600087803b158015610f2657600080fd5b505af1158015610f3a573d6000803e3d6000fd5b505050505050505050565b6060610f5082611204565b610f8f576040517f08c379a0000000000000000000000000000000000000000000000000000000008152600401610f869061317b565b60405180910390fd5b6000610f99611f67565b90506000815111610fb95760405180602001604052806000815250610fe4565b80610fc384611f7e565b604051602001610fd4929190612f49565b6040516020818303038152906040525b915050919050565b606060068054610ffb906135cd565b80601f0160208091040260200160405190810160405280929190818152602001828054611027906135cd565b80156110745780601f1061104957610100808354040283529160200191611074565b820191906000526020600020905b81548152906001019060200180831161105757829003601f168201915b5050505050905090565b6000600115153373ffffffffffffffffffffffffffffffffffffffff168473ffffffffffffffffffffffffffffffffffffffff16141515146110f5576040517f08c379a00000000000000000000000000000000000000000000000000000000081526004016110ec906131bb565b60405180910390fd5b6110fe82610802565b905092915050565b6000600560008473ffffffffffffffffffffffffffffffffffffffff1673ffffffffffffffffffffffffffffffffffffffff16815260200190815260200160002060008373ffffffffffffffffffffffffffffffffffffffff1673ffffffffffffffffffffffffffffffffffffffff16815260200190815260200160002060009054906101000a900460ff16905092915050565b60007f01ffc9a7000000000000000000000000000000000000000000000000000000007bffffffffffffffffffffffffffffffffffffffffffffffffffffffff1916827bffffffffffffffffffffffffffffffffffffffffffffffffffffffff1916149050919050565b60008073ffffffffffffffffffffffffffffffffffffffff166002600084815260200190815260200160002060009054906101000a900473ffffffffffffffffffffffffffffffffffffffff1673ffffffffffffffffffffffffffffffffffffffff1614159050919050565b600033905090565b816004600083815260200190815260200160002060006101000a81548173ffffffffffffffffffffffffffffffffffffffff021916908373ffffffffffffffffffffffffffffffffffffffff160217905550808273ffffffffffffffffffffffffffffffffffffffff166112eb83610750565b73ffffffffffffffffffffffffffffffffffffffff167f8c5be1e5ebec7d5bd14f71427d1e84f3dd0314c0f7b2291e5b200ac8c7c3b92560405160405180910390a45050565b600061133c82611204565b61137b576040517f08c379a0000000000000000000000000000000000000000000000000000000008152600401611372906130bb565b60405180910390fd5b600061138683610750565b90508073ffffffffffffffffffffffffffffffffffffffff168473ffffffffffffffffffffffffffffffffffffffff1614806113f557508373ffffffffffffffffffffffffffffffffffffffff166113dd84610519565b73ffffffffffffffffffffffffffffffffffffffff16145b8061140657506114058185611106565b5b91505092915050565b8273ffffffffffffffffffffffffffffffffffffffff1661142f82610750565b73ffffffffffffffffffffffffffffffffffffffff1614611485576040517f08c379a000000000000000000000000000000000000000000000000000000000815260040161147c9061315b565b60405180910390fd5b600073ffffffffffffffffffffffffffffffffffffffff168273ffffffffffffffffffffffffffffffffffffffff1614156114f5576040517f08c379a00000000000000000000000000000000000000000000000000000000081526004016114ec9061307b565b60405180910390fd5b61150083838361212b565b61150b600082611278565b6001600360008573ffffffffffffffffffffffffffffffffffffffff1673ffffffffffffffffffffffffffffffffffffffff168152602001908152602001600020600082825461155b91906134e3565b925050819055506001600360008473ffffffffffffffffffffffffffffffffffffffff1673ffffffffffffffffffffffffffffffffffffffff16815260200190815260200160002060008282546115b29190613380565b92505081905550816002600083815260200190815260200160002060006101000a81548173ffffffffffffffffffffffffffffffffffffffff021916908373ffffffffffffffffffffffffffffffffffffffff160217905550808273ffffffffffffffffffffffffffffffffffffffff168473ffffffffffffffffffffffffffffffffffffffff167fddf252ad1be2c89b69c2b068fc378daa952ba7f163c4a11628f55a4df523b3ef60405160405180910390a4505050565b611673612360565b61167b612360565b6000849050600084905060005b825181101561195757816000815181106116cb577f4e487b7100000000000000000000000000000000000000000000000000000000600052603260045260246000fd5b602001015160f81c60f81b7effffffffffffffffffffffffffffffffffffffffffffffffffffffffffffff1916838281518110611731577f4e487b7100000000000000000000000000000000000000000000000000000000600052603260045260246000fd5b602001015160f81c60f81b7effffffffffffffffffffffffffffffffffffffffffffffffffffffffffffff19161461185057600783828151811061179e577f4e487b7100000000000000000000000000000000000000000000000000000000600052603260045260246000fd5b602001015160f81c60f81b90808054806117b7906135cd565b80601f81146117c5576117db565b83600052602060002060ff1984168155603f9350505b5060028201835560018101925050506001900381546001161561180d5790600052602060002090602091828204019190065b909190919091601f036101000a81548160ff021916907f010000000000000000000000000000000000000000000000000000000000000084040217905550611944565b6007805461185d906135cd565b80601f0160208091040260200160405190810160405280929190818152602001828054611889906135cd565b80156118d65780601f106118ab576101008083540402835291602001916118d6565b820191906000526020600020905b8154815290600101906020018083116118b957829003601f168201915b505050505084600060028110611915577f4e487b7100000000000000000000000000000000000000000000000000000000600052603260045260246000fd5b60200201819052506040518060200160405280600081525060079080519060200190611942929190612387565b505b808061194f906135ff565b915050611688565b5080600081518110611992577f4e487b7100000000000000000000000000000000000000000000000000000000600052603260045260246000fd5b602001015160f81c60f81b7effffffffffffffffffffffffffffffffffffffffffffffffffffffffffffff191682600184516119ce91906134e3565b81518110611a05577f4e487b7100000000000000000000000000000000000000000000000000000000600052603260045260246000fd5b602001015160f81c60f81b7effffffffffffffffffffffffffffffffffffffffffffffffffffffffffffff191614611b2b5760078054611a44906135cd565b80601f0160208091040260200160405190810160405280929190818152602001828054611a70906135cd565b8015611abd5780601f10611a9257610100808354040283529160200191611abd565b820191906000526020600020905b815481529060010190602001808311611aa057829003601f168201915b505050505083600160028110611afc577f4e487b7100000000000000000000000000000000000000000000000000000000600052603260045260246000fd5b60200201819052506040518060200160405280600081525060079080519060200190611b29929190612387565b505b82935050505092915050565b600080600090506000806000600290505b602a811015611e445761010084611b5f9190613407565b9350858181518110611b9a577f4e487b7100000000000000000000000000000000000000000000000000000000600052603260045260246000fd5b602001015160f81c60f81b60f81c60ff16925085600182611bbb9190613380565b81518110611bf2577f4e487b7100000000000000000000000000000000000000000000000000000000600052603260045260246000fd5b602001015160f81c60f81b60f81c60ff16915060618373ffffffffffffffffffffffffffffffffffffffff1610158015611c43575060668373ffffffffffffffffffffffffffffffffffffffff1611155b15611c5c57605783611c5591906134af565b9250611d08565b60418373ffffffffffffffffffffffffffffffffffffffff1610158015611c9a575060468373ffffffffffffffffffffffffffffffffffffffff1611155b15611cb357603783611cac91906134af565b9250611d07565b60308373ffffffffffffffffffffffffffffffffffffffff1610158015611cf1575060398373ffffffffffffffffffffffffffffffffffffffff1611155b15611d0657603083611d0391906134af565b92505b5b5b60618273ffffffffffffffffffffffffffffffffffffffff1610158015611d46575060668273ffffffffffffffffffffffffffffffffffffffff1611155b15611d5f57605782611d5891906134af565b9150611e0b565b60418273ffffffffffffffffffffffffffffffffffffffff1610158015611d9d575060468273ffffffffffffffffffffffffffffffffffffffff1611155b15611db657603782611daf91906134af565b9150611e0a565b60308273ffffffffffffffffffffffffffffffffffffffff1610158015611df4575060398273ffffffffffffffffffffffffffffffffffffffff1611155b15611e0957603082611e0691906134af565b91505b5b5b81601084611e199190613407565b611e239190613336565b84611e2e9190613336565b9350600281611e3d9190613380565b9050611b48565b50829350505050919050565b60008060009150600090505b8251811015611f05576000838281518110611ea0577f4e487b7100000000000000000000000000000000000000000000000000000000600052603260045260246000fd5b602001015160f81c60f81b60f81c60ff16905060308110158015611ec5575060398111155b15611ef157603081611ed791906134e3565b600a84611ee49190613455565b611eee9190613380565b92505b508080611efd906135ff565b915050611e5c565b50919050565b611f1684848461140f565b611f2284848484612130565b611f61576040517f08c379a0000000000000000000000000000000000000000000000000000000008152600401611f589061305b565b60405180910390fd5b50505050565b606060405180602001604052806000815250905090565b60606000821415611fc6576040518060400160405280600181526020017f30000000000000000000000000000000000000000000000000000000000000008152509050612126565b600082905060005b60008214611ff8578080611fe1906135ff565b915050600a82611ff191906133d6565b9150611fce565b60008167ffffffffffffffff81111561203a577f4e487b7100000000000000000000000000000000000000000000000000000000600052604160045260246000fd5b6040519080825280601f01601f19166020018201604052801561206c5781602001600182028036833780820191505090505b5090505b6000851461211f5760018261208591906134e3565b9150600a856120949190613648565b60306120a09190613380565b60f81b8183815181106120dc577f4e487b7100000000000000000000000000000000000000000000000000000000600052603260045260246000fd5b60200101907effffffffffffffffffffffffffffffffffffffffffffffffffffffffffffff1916908160001a905350600a8561211891906133d6565b9450612070565b8093505050505b919050565b505050565b60006121518473ffffffffffffffffffffffffffffffffffffffff166122c7565b156122ba578373ffffffffffffffffffffffffffffffffffffffff1663150b7a0261217a611270565b8786866040518563ffffffff1660e01b815260040161219c9493929190612f88565b602060405180830381600087803b1580156121b657600080fd5b505af19250505080156121e757506040513d601f19601f820116820180604052508101906121e49190612884565b60015b61226a573d8060008114612217576040519150601f19603f3d011682016040523d82523d6000602084013e61221c565b606091505b50600081511415612262576040517f08c379a00000000000000000000000000000000000000000000000000000000081526004016122599061305b565b60405180910390fd5b805181602001fd5b63150b7a0260e01b7bffffffffffffffffffffffffffffffffffffffffffffffffffffffff1916817bffffffffffffffffffffffffffffffffffffffffffffffffffffffff1916149150506122bf565b600190505b949350505050565b600080823b905060008111915050919050565b8280546122e6906135cd565b90600052602060002090601f016020900481019282612308576000855561234f565b82601f1061232157805160ff191683800117855561234f565b8280016001018555821561234f579182015b8281111561234e578251825591602001919060010190612333565b5b50905061235c919061240d565b5090565b60405180604001604052806002905b606081526020019060019003908161236f5790505090565b828054612393906135cd565b90600052602060002090601f0160209004810192826123b557600085556123fc565b82601f106123ce57805160ff19168380011785556123fc565b828001600101855582156123fc579182015b828111156123fb5782518255916020019190600101906123e0565b5b509050612409919061240d565b5090565b5b8082111561242657600081600090555060010161240e565b5090565b600061243d61243884613267565b613236565b9050808382526020820190508260005b8581101561247d578135850161246388826125ab565b84526020840193506020830192505060018101905061244d565b5050509392505050565b600061249a61249584613293565b613236565b9050828152602081018484840111156124b257600080fd5b6124bd84828561358b565b509392505050565b60006124d86124d3846132c3565b613236565b9050828152602081018484840111156124f057600080fd5b6124fb84828561358b565b509392505050565b60008135905061251281613746565b92915050565b600082601f83011261252957600080fd5b813561253984826020860161242a565b91505092915050565b6000813590506125518161375d565b92915050565b60008135905061256681613774565b92915050565b60008151905061257b81613774565b92915050565b600082601f83011261259257600080fd5b81356125a2848260208601612487565b91505092915050565b600082601f8301126125bc57600080fd5b81356125cc8482602086016124c5565b91505092915050565b6000813590506125e48161378b565b92915050565b6000602082840312156125fc57600080fd5b600061260a84828501612503565b91505092915050565b6000806040838503121561262657600080fd5b600061263485828601612503565b925050602061264585828601612503565b9150509250929050565b6000806000806080858703121561266557600080fd5b600061267387828801612503565b945050602061268487828801612503565b935050604061269587828801612503565b92505060606126a6878288016125d5565b91505092959194509250565b6000806000606084860312156126c757600080fd5b60006126d586828701612503565b93505060206126e686828701612503565b92505060406126f7868287016125d5565b9150509250925092565b6000806000806080858703121561271757600080fd5b600061272587828801612503565b945050602061273687828801612503565b9350506040612747878288016125d5565b925050606085013567ffffffffffffffff81111561276457600080fd5b61277087828801612581565b91505092959194509250565b6000806040838503121561278f57600080fd5b600061279d85828601612503565b92505060206127ae85828601612542565b9150509250929050565b600080604083850312156127cb57600080fd5b60006127d985828601612503565b92505060206127ea858286016125d5565b9150509250929050565b60008060006060848603121561280957600080fd5b600084013567ffffffffffffffff81111561282357600080fd5b61282f86828701612518565b935050602061284086828701612503565b925050604061285186828701612503565b9150509250925092565b60006020828403121561286d57600080fd5b600061287b84828501612557565b91505092915050565b60006020828403121561289657600080fd5b60006128a48482850161256c565b91505092915050565b6000602082840312156128bf57600080fd5b600082013567ffffffffffffffff8111156128d957600080fd5b6128e5848285016125ab565b91505092915050565b60006020828403121561290057600080fd5b600061290e848285016125d5565b91505092915050565b61292081613517565b82525050565b61292f81613529565b82525050565b6000612940826132f3565b61294a8185613309565b935061295a81856020860161359a565b61296381613735565b840191505092915050565b6000612979826132fe565b612983818561331a565b935061299381856020860161359a565b61299c81613735565b840191505092915050565b60006129b2826132fe565b6129bc818561332b565b93506129cc81856020860161359a565b80840191505092915050565b60006129e560328361331a565b91507f4552433732313a207472616e7366657220746f206e6f6e20455243373231526560008301527f63656976657220696d706c656d656e74657200000000000000000000000000006020830152604082019050919050565b6000612a4b60248361331a565b91507f4552433732313a207472616e7366657220746f20746865207a65726f2061646460008301527f72657373000000000000000000000000000000000000000000000000000000006020830152604082019050919050565b6000612ab160198361331a565b91507f4552433732313a20617070726f766520746f2063616c6c6572000000000000006000830152602082019050919050565b6000612af1602c8361331a565b91507f4552433732313a206f70657261746f7220717565727920666f72206e6f6e657860008301527f697374656e7420746f6b656e00000000000000000000000000000000000000006020830152604082019050919050565b6000612b5760388361331a565b91507f4552433732313a20617070726f76652063616c6c6572206973206e6f74206f7760008301527f6e6572206e6f7220617070726f76656420666f7220616c6c00000000000000006020830152604082019050919050565b6000612bbd602a8361331a565b91507f4552433732313a2062616c616e636520717565727920666f7220746865207a6560008301527f726f2061646472657373000000000000000000000000000000000000000000006020830152604082019050919050565b6000612c2360298361331a565b91507f4552433732313a206f776e657220717565727920666f72206e6f6e657869737460008301527f656e7420746f6b656e00000000000000000000000000000000000000000000006020830152604082019050919050565b6000612c89602c8361331a565b91507f4552433732313a20617070726f76656420717565727920666f72206e6f6e657860008301527f697374656e7420746f6b656e00000000000000000000000000000000000000006020830152604082019050919050565b6000612cef60298361331a565b91507f4552433732313a207472616e73666572206f6620746f6b656e2074686174206960008301527f73206e6f74206f776e00000000000000000000000000000000000000000000006020830152604082019050919050565b6000612d55602f8361331a565b91507f4552433732314d657461646174613a2055524920717565727920666f72206e6f60008301527f6e6578697374656e7420746f6b656e00000000000000000000000000000000006020830152604082019050919050565b6000612dbb60218361331a565b91507f4552433732313a20617070726f76616c20746f2063757272656e74206f776e6560008301527f72000000000000000000000000000000000000000000000000000000000000006020830152604082019050919050565b6000612e2160308361331a565b91507f4e656564206f70657261746f7220617070726f76616c20666f7220337264207060008301527f61727479207472616e7361666572732e000000000000000000000000000000006020830152604082019050919050565b6000612e87600083613309565b9150600082019050919050565b6000612ea160318361331a565b91507f4552433732313a207472616e736665722063616c6c6572206973206e6f74206f60008301527f776e6572206e6f7220617070726f7665640000000000000000000000000000006020830152604082019050919050565b6000612f0760158361331a565b91507f5f746f206d757374206265206e6f6e2d7a65726f2e00000000000000000000006000830152602082019050919050565b612f4381613581565b82525050565b6000612f5582856129a7565b9150612f6182846129a7565b91508190509392505050565b6000602082019050612f826000830184612917565b92915050565b6000608082019050612f9d6000830187612917565b612faa6020830186612917565b612fb76040830185612f3a565b8181036060830152612fc98184612935565b905095945050505050565b6000608082019050612fe96000830186612917565b612ff66020830185612917565b6130036040830184612f3a565b818103606083015261301481612e7a565b9050949350505050565b60006020820190506130336000830184612926565b92915050565b60006020820190508181036000830152613053818461296e565b905092915050565b60006020820190508181036000830152613074816129d8565b9050919050565b6000602082019050818103600083015261309481612a3e565b9050919050565b600060208201905081810360008301526130b481612aa4565b9050919050565b600060208201905081810360008301526130d481612ae4565b9050919050565b600060208201905081810360008301526130f481612b4a565b9050919050565b6000602082019050818103600083015261311481612bb0565b9050919050565b6000602082019050818103600083015261313481612c16565b9050919050565b6000602082019050818103600083015261315481612c7c565b9050919050565b6000602082019050818103600083015261317481612ce2565b9050919050565b6000602082019050818103600083015261319481612d48565b9050919050565b600060208201905081810360008301526131b481612dae565b9050919050565b600060208201905081810360008301526131d481612e14565b9050919050565b600060208201905081810360008301526131f481612e94565b9050919050565b6000602082019050818103600083015261321481612efa565b9050919050565b60006020820190506132306000830184612f3a565b92915050565b6000604051905081810181811067ffffffffffffffff8211171561325d5761325c613706565b5b8060405250919050565b600067ffffffffffffffff82111561328257613281613706565b5b602082029050602081019050919050565b600067ffffffffffffffff8211156132ae576132ad613706565b5b601f19601f8301169050602081019050919050565b600067ffffffffffffffff8211156132de576132dd613706565b5b601f19601f8301169050602081019050919050565b600081519050919050565b600081519050919050565b600082825260208201905092915050565b600082825260208201905092915050565b600081905092915050565b600061334182613561565b915061334c83613561565b92508273ffffffffffffffffffffffffffffffffffffffff0382111561337557613374613679565b5b828201905092915050565b600061338b82613581565b915061339683613581565b9250827fffffffffffffffffffffffffffffffffffffffffffffffffffffffffffffffff038211156133cb576133ca613679565b5b828201905092915050565b60006133e182613581565b91506133ec83613581565b9250826133fc576133fb6136a8565b5b828204905092915050565b600061341282613561565b915061341d83613561565b92508173ffffffffffffffffffffffffffffffffffffffff048311821515161561344a57613449613679565b5b828202905092915050565b600061346082613581565b915061346b83613581565b9250817fffffffffffffffffffffffffffffffffffffffffffffffffffffffffffffffff04831182151516156134a4576134a3613679565b5b828202905092915050565b60006134ba82613561565b91506134c583613561565b9250828210156134d8576134d7613679565b5b828203905092915050565b60006134ee82613581565b91506134f983613581565b92508282101561350c5761350b613679565b5b828203905092915050565b600061352282613561565b9050919050565b60008115159050919050565b60007fffffffff0000000000000000000000000000000000000000000000000000000082169050919050565b600073ffffffffffffffffffffffffffffffffffffffff82169050919050565b6000819050919050565b82818337600083830152505050565b60005b838110156135b857808201518184015260208101905061359d565b838111156135c7576000848401525b50505050565b600060028204905060018216806135e557607f821691505b602082108114156135f9576135f86136d7565b5b50919050565b600061360a82613581565b91507fffffffffffffffffffffffffffffffffffffffffffffffffffffffffffffffff82141561363d5761363c613679565b5b600182019050919050565b600061365382613581565b915061365e83613581565b92508261366e5761366d6136a8565b5b828206905092915050565b7f4e487b7100000000000000000000000000000000000000000000000000000000600052601160045260246000fd5b7f4e487b7100000000000000000000000000000000000000000000000000000000600052601260045260246000fd5b7f4e487b7100000000000000000000000000000000000000000000000000000000600052602260045260246000fd5b7f4e487b7100000000000000000000000000000000000000000000000000000000600052604160045260246000fd5b6000601f19601f8301169050919050565b61374f81613517565b811461375a57600080fd5b50565b61376681613529565b811461377157600080fd5b50565b61377d81613535565b811461378857600080fd5b50565b61379481613581565b811461379f57600080fd5b5056fea26469706673582212206ffa6b471106726aa63ad1679c4a856f7d16f815813ba131d787683eb76d763964736f6c634300080000335468697320697320746865206261746368207472616e73666572207765627369746521",
  "immutableReferences": {},
  "source": "// SPDX-License-Identifier: MIT\npragma solidity >=0.4.22 <0.9.0;\n\nimport \"@openzeppelin/contracts/token/ERC721/ERC721.sol\";\n\ncontract BatchTransfer is ERC721 {\n    // Test function for front-end\n    // ---------------------------------------------\n    string private message = \"This is the batch transfer website!\";\n\n    function getMessage() public view returns(string memory) {\n        return message;\n    }\n\n    function setMessage(string memory newMessage) public {\n        message = newMessage;\n    }\n    // ---------------------------------------------\n\n    constructor() ERC721(\"BatchTransfer\", \"BTS\") { }\n\n    function getBalance(address _addr, address _owner) external view returns(uint256) {\n        require(_addr == msg.sender == true, \"Need operator approval for 3rd party transafers.\");\n        return balanceOf(_owner);\n        // ERC721 smart_contract = ERC721(_addr);\n        // return smart_contract.balanceOf(_owner);\n    }\n    \n    function singleTransfer(address _addr, address _from, address _to, uint _tokenid) external {\n        require(_to != address(0x0), \"_to must be non-zero.\");\n        require(_from == msg.sender == true, \"Need operator approval for 3rd party transafers.\");\n        safeTransferFrom(_from, _to, _tokenid, \"\");\n        ERC721 smart_contract = ERC721(_addr);\n        smart_contract.safeTransferFrom(_from, _to, _tokenid, \"\");\n    }\n    \n    function batchTransfer(string[] memory addr_tokenid_list, address _from, address _to) public {\n        require(_to != address(0x0), \"_to must be non-zero.\");\n        require(_from == msg.sender == true, \"Need operator approval for 3rd party transafers.\");\n        for (uint i = 0; i < addr_tokenid_list.length; i++) {\n            bytes[2] memory addr_tokenid = splitString(addr_tokenid_list[i], \", \");\n            address addr = bytesToAddress(addr_tokenid[0]);\n            uint tokenId = bytesToUint(addr_tokenid[1]);\n            ERC721 smart_contract = ERC721(addr);\n            smart_contract.safeTransferFrom(_from, _to, tokenId, \"\");\n        }\n    }\n    \n    bytes splitStringTemp;\n    function splitString(string memory input, string memory delimiter) internal returns(bytes[2] memory) {\n        bytes[2] memory splitStringResult;\n        bytes memory input_byte = bytes(input);\n        bytes memory delimiter_byte = bytes(delimiter);\n        for(uint i; i < input_byte.length ; i++){\n            if (input_byte[i] != delimiter_byte[0]) {\n                splitStringTemp.push(input_byte[i]);\n            } else { \n                splitStringResult[0] = splitStringTemp;\n                splitStringTemp = \"\";\n            }\n        }\n        if (input_byte[input_byte.length-1] != delimiter_byte[0]) { \n            splitStringResult[1] = splitStringTemp;\n            splitStringTemp = \"\";\n        }\n        return splitStringResult;\n    }\n    \n    function bytesToUint(bytes memory _input) pure internal returns (uint result) {\n        uint i;\n        result = 0;\n        for (i = 0; i < _input.length; i++) {\n            uint c = uint(uint8(_input[i]));\n            if (c >= 48 && c <= 57) {\n                result = result * 10 + (c - 48);\n            }\n        }\n    }\n    \n    function bytesToAddress(bytes memory _address) internal pure returns (address _parsedAddress) {\n        uint160 iaddr = 0;\n        uint160 b1;\n        uint160 b2;\n        for (uint i = 2; i < 2 + 2 * 20; i += 2) {\n            iaddr *= 256;\n            b1 = uint160(uint8(_address[i]));\n            b2 = uint160(uint8(_address[i + 1]));\n            if ((b1 >= 97) && (b1 <= 102)) {\n                b1 -= 87;\n            } else if ((b1 >= 65) && (b1 <= 70)) {\n                b1 -= 55;\n            } else if ((b1 >= 48) && (b1 <= 57)) {\n                b1 -= 48;\n            }\n            if ((b2 >= 97) && (b2 <= 102)) {\n                b2 -= 87;\n            } else if ((b2 >= 65) && (b2 <= 70)) {\n                b2 -= 55;\n            } else if ((b2 >= 48) && (b2 <= 57)) {\n                b2 -= 48;\n            }\n            iaddr += (b1 * 16 + b2);\n        }\n        return address(iaddr);\n    }\n}",
  "sourcePath": "/Users/heesoohwang/truffle/batch_NFT/contracts/BatchTransfer.sol",
  "compiler": {
    "name": "solc",
    "version": "0.8.0+commit.c7dfd78e.Emscripten.clang"
  },
  "schemaVersion": "3.4.3",
  "updatedAt": "2021-09-15T20:33:16.414Z",
  "networkType": "ethereum",
  "devdoc": {
    "kind": "dev",
    "methods": {
      "approve(address,uint256)": {
        "details": "See {IERC721-approve}."
      },
      "balanceOf(address)": {
        "details": "See {IERC721-balanceOf}."
      },
      "getApproved(uint256)": {
        "details": "See {IERC721-getApproved}."
      },
      "isApprovedForAll(address,address)": {
        "details": "See {IERC721-isApprovedForAll}."
      },
      "name()": {
        "details": "See {IERC721Metadata-name}."
      },
      "ownerOf(uint256)": {
        "details": "See {IERC721-ownerOf}."
      },
      "safeTransferFrom(address,address,uint256)": {
        "details": "See {IERC721-safeTransferFrom}."
      },
      "safeTransferFrom(address,address,uint256,bytes)": {
        "details": "See {IERC721-safeTransferFrom}."
      },
      "setApprovalForAll(address,bool)": {
        "details": "See {IERC721-setApprovalForAll}."
      },
      "supportsInterface(bytes4)": {
        "details": "See {IERC165-supportsInterface}."
      },
      "symbol()": {
        "details": "See {IERC721Metadata-symbol}."
      },
      "tokenURI(uint256)": {
        "details": "See {IERC721Metadata-tokenURI}."
      },
      "transferFrom(address,address,uint256)": {
        "details": "See {IERC721-transferFrom}."
      }
    },
    "version": 1
  },
  "userdoc": {
    "kind": "user",
    "methods": {},
    "version": 1
  }
}