{
  "contractName": "BatchTransfer",
  "abi": [
    {
      "anonymous": false,
      "inputs": [
        {
          "indexed": false,
          "internalType": "address",
          "name": "value",
          "type": "address"
        }
      ],
      "name": "print_address",
      "type": "event"
    },
    {
      "anonymous": false,
      "inputs": [
        {
          "indexed": false,
          "internalType": "uint256",
          "name": "value",
          "type": "uint256"
        }
      ],
      "name": "print_uint",
      "type": "event"
    },
    {
      "inputs": [],
      "name": "getMessage",
      "outputs": [
        {
          "internalType": "string",
          "name": "",
          "type": "string"
        }
      ],
      "stateMutability": "view",
      "type": "function",
      "constant": true
    },
    {
      "inputs": [
        {
          "internalType": "string",
          "name": "newMessage",
          "type": "string"
        }
      ],
      "name": "setMessage",
      "outputs": [],
      "stateMutability": "nonpayable",
      "type": "function"
    },
    {
      "inputs": [
        {
          "internalType": "address",
          "name": "_addr",
          "type": "address"
        },
        {
          "internalType": "address",
          "name": "_owner",
          "type": "address"
        }
      ],
      "name": "getBalance",
      "outputs": [
        {
          "internalType": "uint256",
          "name": "",
          "type": "uint256"
        }
      ],
      "stateMutability": "view",
      "type": "function",
      "constant": true
    },
    {
      "inputs": [
        {
          "internalType": "address",
          "name": "_addr",
          "type": "address"
        },
        {
          "internalType": "address",
          "name": "_from",
          "type": "address"
        },
        {
          "internalType": "address",
          "name": "_to",
          "type": "address"
        },
        {
          "internalType": "uint256",
          "name": "_tokenid",
          "type": "uint256"
        }
      ],
      "name": "singleTransfer",
      "outputs": [],
      "stateMutability": "nonpayable",
      "type": "function"
    },
    {
      "inputs": [
        {
          "internalType": "string[]",
          "name": "addr_tokenid_list",
          "type": "string[]"
        },
        {
          "internalType": "address",
          "name": "_from",
          "type": "address"
        },
        {
          "internalType": "address",
          "name": "_to",
          "type": "address"
        }
      ],
      "name": "batchTransfer",
      "outputs": [],
      "stateMutability": "nonpayable",
      "type": "function"
    }
  ],
  "bytecode": "0x608060405260405180606001604052806023815260200162001b406023913960009080519060200190620000359291906200004a565b503480156200004357600080fd5b506200015f565b8280546200005890620000fa565b90600052602060002090601f0160209004810192826200007c5760008555620000c8565b82601f106200009757805160ff1916838001178555620000c8565b82800160010185558215620000c8579182015b82811115620000c7578251825591602001919060010190620000aa565b5b509050620000d79190620000db565b5090565b5b80821115620000f6576000816000905550600101620000dc565b5090565b600060028204905060018216806200011357607f821691505b602082108114156200012a576200012962000130565b5b50919050565b7f4e487b7100000000000000000000000000000000000000000000000000000000600052602260045260246000fd5b6119d1806200016f6000396000f3fe608060405234801561001057600080fd5b50600436106100575760003560e01c8063368b87721461005c57806392dc12d514610078578063b9bd519514610094578063ce6d41de146100b0578063d4fac45d146100ce575b600080fd5b61007660048036038101906100719190611309565b6100fe565b005b610092600480360381019061008d91906112a2565b610118565b005b6100ae60048036038101906100a9919061123f565b6103d5565b005b6100b8610535565b6040516100c591906114ef565b60405180910390f35b6100e860048036038101906100e39190611203565b6105c7565b6040516100f59190611551565b60405180910390f35b8060009080519060200190610114929190610f1f565b5050565b600073ffffffffffffffffffffffffffffffffffffffff168173ffffffffffffffffffffffffffffffffffffffff161415610188576040517f08c379a000000000000000000000000000000000000000000000000000000000815260040161017f90611531565b60405180910390fd5b600115153373ffffffffffffffffffffffffffffffffffffffff168373ffffffffffffffffffffffffffffffffffffffff16141515146101fd576040517f08c379a00000000000000000000000000000000000000000000000000000000081526004016101f490611511565b60405180910390fd5b60005b83518110156103cf57600061028a858381518110610247577f4e487b7100000000000000000000000000000000000000000000000000000000600052603260045260246000fd5b60200260200101516040518060400160405280600281526020017f2c200000000000000000000000000000000000000000000000000000000000008152506106d5565b905060006102d8826000815181106102cb577f4e487b7100000000000000000000000000000000000000000000000000000000600052603260045260246000fd5b6020026020010151610b4b565b90506000600190505b82518110156103b9576000610335848381518110610328577f4e487b7100000000000000000000000000000000000000000000000000000000600052603260045260246000fd5b6020026020010151610e64565b90507f7a4f1168e7c8af8210052edecbc01ffed8b53c3d7f46595a42c175a49f87f4fa83604051610366919061148a565b60405180910390a17f692c952151b417a9943d2d683df661e7680bee63e10c12a77b4681793f8c34358160405161039d9190611551565b60405180910390a15080806103b190611886565b9150506102e1565b50505080806103c790611886565b915050610200565b50505050565b600073ffffffffffffffffffffffffffffffffffffffff168273ffffffffffffffffffffffffffffffffffffffff161415610445576040517f08c379a000000000000000000000000000000000000000000000000000000000815260040161043c90611531565b60405180910390fd5b600115153373ffffffffffffffffffffffffffffffffffffffff168473ffffffffffffffffffffffffffffffffffffffff16141515146104ba576040517f08c379a00000000000000000000000000000000000000000000000000000000081526004016104b190611511565b60405180910390fd5b60008490508073ffffffffffffffffffffffffffffffffffffffff1663b88d4fde8585856040518463ffffffff1660e01b81526004016104fc939291906114a5565b600060405180830381600087803b15801561051657600080fd5b505af115801561052a573d6000803e3d6000fd5b505050505050505050565b60606000805461054490611854565b80601f016020809104026020016040519081016040528092919081815260200182805461057090611854565b80156105bd5780601f10610592576101008083540402835291602001916105bd565b820191906000526020600020905b8154815290600101906020018083116105a057829003601f168201915b5050505050905090565b6000600115153373ffffffffffffffffffffffffffffffffffffffff168473ffffffffffffffffffffffffffffffffffffffff161415151461063e576040517f08c379a000000000000000000000000000000000000000000000000000000000815260040161063590611511565b60405180910390fd5b60008390508073ffffffffffffffffffffffffffffffffffffffff166370a08231846040518263ffffffff1660e01b815260040161067c919061148a565b60206040518083038186803b15801561069457600080fd5b505afa1580156106a8573d6000803e3d6000fd5b505050506040513d601f19601f820116820180604052508101906106cc919061134a565b91505092915050565b60606000839050600083905060005b82518110156109275781600081518110610727577f4e487b7100000000000000000000000000000000000000000000000000000000600052603260045260246000fd5b602001015160f81c60f81b7effffffffffffffffffffffffffffffffffffffffffffffffffffffffffffff191683828151811061078d577f4e487b7100000000000000000000000000000000000000000000000000000000600052603260045260246000fd5b602001015160f81c60f81b7effffffffffffffffffffffffffffffffffffffffffffffffffffffffffffff1916146108ac5760018382815181106107fa577f4e487b7100000000000000000000000000000000000000000000000000000000600052603260045260246000fd5b602001015160f81c60f81b908080548061081390611854565b80601f811461082157610837565b83600052602060002060ff1984168155603f9350505b506002820183556001810192505050600190038154600116156108695790600052602060002090602091828204019190065b909190919091601f036101000a81548160ff021916907f010000000000000000000000000000000000000000000000000000000000000084040217905550610914565b60026001908060018154018082558091505060019003906000526020600020016000909190919091509080546108e190611854565b6108ec929190610fa5565b506040518060200160405280600081525060019080519060200190610912929190611032565b505b808061091f90611886565b9150506106e4565b5080600081518110610962577f4e487b7100000000000000000000000000000000000000000000000000000000600052603260045260246000fd5b602001015160f81c60f81b7effffffffffffffffffffffffffffffffffffffffffffffffffffffffffffff1916826001845161099e91906117a2565b815181106109d5577f4e487b7100000000000000000000000000000000000000000000000000000000600052603260045260246000fd5b602001015160f81c60f81b7effffffffffffffffffffffffffffffffffffffffffffffffffffffffffffff191614610a6f576002600190806001815401808255809150506001900390600052602060002001600090919091909150908054610a3c90611854565b610a47929190610fa5565b506040518060200160405280600081525060019080519060200190610a6d929190611032565b505b6002805480602002602001604051908101604052809291908181526020016000905b82821015610b3d578382906000526020600020018054610ab090611854565b80601f0160208091040260200160405190810160405280929190818152602001828054610adc90611854565b8015610b295780601f10610afe57610100808354040283529160200191610b29565b820191906000526020600020905b815481529060010190602001808311610b0c57829003601f168201915b505050505081526020019060010190610a91565b505050509250505092915050565b600080600090506000806000600290505b602a811015610e585761010084610b7391906116c6565b9350858181518110610bae577f4e487b7100000000000000000000000000000000000000000000000000000000600052603260045260246000fd5b602001015160f81c60f81b60f81c60ff16925085600182610bcf9190611670565b81518110610c06577f4e487b7100000000000000000000000000000000000000000000000000000000600052603260045260246000fd5b602001015160f81c60f81b60f81c60ff16915060618373ffffffffffffffffffffffffffffffffffffffff1610158015610c57575060668373ffffffffffffffffffffffffffffffffffffffff1611155b15610c7057605783610c69919061176e565b9250610d1c565b60418373ffffffffffffffffffffffffffffffffffffffff1610158015610cae575060468373ffffffffffffffffffffffffffffffffffffffff1611155b15610cc757603783610cc0919061176e565b9250610d1b565b60308373ffffffffffffffffffffffffffffffffffffffff1610158015610d05575060398373ffffffffffffffffffffffffffffffffffffffff1611155b15610d1a57603083610d17919061176e565b92505b5b5b60618273ffffffffffffffffffffffffffffffffffffffff1610158015610d5a575060668273ffffffffffffffffffffffffffffffffffffffff1611155b15610d7357605782610d6c919061176e565b9150610e1f565b60418273ffffffffffffffffffffffffffffffffffffffff1610158015610db1575060468273ffffffffffffffffffffffffffffffffffffffff1611155b15610dca57603782610dc3919061176e565b9150610e1e565b60308273ffffffffffffffffffffffffffffffffffffffff1610158015610e08575060398273ffffffffffffffffffffffffffffffffffffffff1611155b15610e1d57603082610e1a919061176e565b91505b5b5b81601084610e2d91906116c6565b610e379190611626565b84610e429190611626565b9350600281610e519190611670565b9050610b5c565b50829350505050919050565b60008060009150600090505b8251811015610f19576000838281518110610eb4577f4e487b7100000000000000000000000000000000000000000000000000000000600052603260045260246000fd5b602001015160f81c60f81b60f81c60ff16905060308110158015610ed9575060398111155b15610f0557603081610eeb91906117a2565b600a84610ef89190611714565b610f029190611670565b92505b508080610f1190611886565b915050610e70565b50919050565b828054610f2b90611854565b90600052602060002090601f016020900481019282610f4d5760008555610f94565b82601f10610f6657805160ff1916838001178555610f94565b82800160010185558215610f94579182015b82811115610f93578251825591602001919060010190610f78565b5b509050610fa191906110b8565b5090565b828054610fb190611854565b90600052602060002090601f016020900481019282610fd35760008555611021565b82601f10610fe45780548555611021565b8280016001018555821561102157600052602060002091601f016020900482015b82811115611020578254825591600101919060010190611005565b5b50905061102e91906110b8565b5090565b82805461103e90611854565b90600052602060002090601f01602090048101928261106057600085556110a7565b82601f1061107957805160ff19168380011785556110a7565b828001600101855582156110a7579182015b828111156110a657825182559160200191906001019061108b565b5b5090506110b491906110b8565b5090565b5b808211156110d15760008160009055506001016110b9565b5090565b60006110e86110e38461159d565b61156c565b9050808382526020820190508260005b85811015611128578135850161110e88826111af565b8452602084019350602083019250506001810190506110f8565b5050509392505050565b6000611145611140846115c9565b61156c565b90508281526020810184848401111561115d57600080fd5b611168848285611812565b509392505050565b60008135905061117f8161196d565b92915050565b600082601f83011261119657600080fd5b81356111a68482602086016110d5565b91505092915050565b600082601f8301126111c057600080fd5b81356111d0848260208601611132565b91505092915050565b6000813590506111e881611984565b92915050565b6000815190506111fd81611984565b92915050565b6000806040838503121561121657600080fd5b600061122485828601611170565b925050602061123585828601611170565b9150509250929050565b6000806000806080858703121561125557600080fd5b600061126387828801611170565b945050602061127487828801611170565b935050604061128587828801611170565b9250506060611296878288016111d9565b91505092959194509250565b6000806000606084860312156112b757600080fd5b600084013567ffffffffffffffff8111156112d157600080fd5b6112dd86828701611185565b93505060206112ee86828701611170565b92505060406112ff86828701611170565b9150509250925092565b60006020828403121561131b57600080fd5b600082013567ffffffffffffffff81111561133557600080fd5b611341848285016111af565b91505092915050565b60006020828403121561135c57600080fd5b600061136a848285016111ee565b91505092915050565b61137c816117d6565b82525050565b600061138d826115f9565b6113978185611615565b93506113a7818560208601611821565b6113b08161195c565b840191505092915050565b60006113c8603083611615565b91507f4e656564206f70657261746f7220617070726f76616c20666f7220337264207060008301527f61727479207472616e7361666572732e000000000000000000000000000000006020830152604082019050919050565b600061142e600083611604565b9150600082019050919050565b6000611448601583611615565b91507f5f746f206d757374206265206e6f6e2d7a65726f2e00000000000000000000006000830152602082019050919050565b61148481611808565b82525050565b600060208201905061149f6000830184611373565b92915050565b60006080820190506114ba6000830186611373565b6114c76020830185611373565b6114d4604083018461147b565b81810360608301526114e581611421565b9050949350505050565b600060208201905081810360008301526115098184611382565b905092915050565b6000602082019050818103600083015261152a816113bb565b9050919050565b6000602082019050818103600083015261154a8161143b565b9050919050565b6000602082019050611566600083018461147b565b92915050565b6000604051905081810181811067ffffffffffffffff821117156115935761159261192d565b5b8060405250919050565b600067ffffffffffffffff8211156115b8576115b761192d565b5b602082029050602081019050919050565b600067ffffffffffffffff8211156115e4576115e361192d565b5b601f19601f8301169050602081019050919050565b600081519050919050565b600082825260208201905092915050565b600082825260208201905092915050565b6000611631826117e8565b915061163c836117e8565b92508273ffffffffffffffffffffffffffffffffffffffff03821115611665576116646118cf565b5b828201905092915050565b600061167b82611808565b915061168683611808565b9250827fffffffffffffffffffffffffffffffffffffffffffffffffffffffffffffffff038211156116bb576116ba6118cf565b5b828201905092915050565b60006116d1826117e8565b91506116dc836117e8565b92508173ffffffffffffffffffffffffffffffffffffffff0483118215151615611709576117086118cf565b5b828202905092915050565b600061171f82611808565b915061172a83611808565b9250817fffffffffffffffffffffffffffffffffffffffffffffffffffffffffffffffff0483118215151615611763576117626118cf565b5b828202905092915050565b6000611779826117e8565b9150611784836117e8565b925082821015611797576117966118cf565b5b828203905092915050565b60006117ad82611808565b91506117b883611808565b9250828210156117cb576117ca6118cf565b5b828203905092915050565b60006117e1826117e8565b9050919050565b600073ffffffffffffffffffffffffffffffffffffffff82169050919050565b6000819050919050565b82818337600083830152505050565b60005b8381101561183f578082015181840152602081019050611824565b8381111561184e576000848401525b50505050565b6000600282049050600182168061186c57607f821691505b602082108114156118805761187f6118fe565b5b50919050565b600061189182611808565b91507fffffffffffffffffffffffffffffffffffffffffffffffffffffffffffffffff8214156118c4576118c36118cf565b5b600182019050919050565b7f4e487b7100000000000000000000000000000000000000000000000000000000600052601160045260246000fd5b7f4e487b7100000000000000000000000000000000000000000000000000000000600052602260045260246000fd5b7f4e487b7100000000000000000000000000000000000000000000000000000000600052604160045260246000fd5b6000601f19601f8301169050919050565b611976816117d6565b811461198157600080fd5b50565b61198d81611808565b811461199857600080fd5b5056fea26469706673582212206fc413703c154ba0803e14a1b7ede19997fc8812824ef0b6196a03f69dd31cd164736f6c634300080000335468697320697320746865206261746368207472616e73666572207765627369746521",
  "immutableReferences": {},
  "source": "// SPDX-License-Identifier: MIT\npragma solidity >=0.4.22 <0.9.0;\n\nimport \"@openzeppelin/contracts/token/ERC721/ERC721.sol\";\n\ncontract BatchTransfer {\n    // Test function for front-end\n    // ---------------------------------------------\n    string private message = \"This is the batch transfer website!\";\n\n    function getMessage() public view returns(string memory) {\n        return message;\n    }\n\n    function setMessage(string memory newMessage) public {\n        message = newMessage;\n    }\n    // ---------------------------------------------\n    bytes splitStringTemp;\n    bytes[] splitStringResult;\n\n    function getBalance(address _addr, address _owner) external view returns(uint256) {\n        require(_addr == msg.sender == true, \"Need operator approval for 3rd party transafers.\");\n        ERC721 smart_contract = ERC721(_addr);\n        return smart_contract.balanceOf(_owner);\n    }\n    \n    function singleTransfer(address _addr, address _from, address _to, uint _tokenid) external {\n        require(_to != address(0x0), \"_to must be non-zero.\");\n        require(_from == msg.sender == true, \"Need operator approval for 3rd party transafers.\");\n        ERC721 smart_contract = ERC721(_addr);\n        smart_contract.safeTransferFrom(_from, _to, _tokenid, \"\");\n    }\n\n    event print_address(address value);\n    event print_uint(uint value);\n    \n    function batchTransfer(string[] memory addr_tokenid_list, address _from, address _to) public {\n        require(_to != address(0x0), \"_to must be non-zero.\");\n        require(_from == msg.sender == true, \"Need operator approval for 3rd party transafers.\");\n        for (uint i = 0; i < addr_tokenid_list.length; i++) {\n            bytes[] memory addr_tokenid = splitString(addr_tokenid_list[i], \", \");\n            address addr = bytesToAddress(addr_tokenid[0]);\n            for (uint j = 1; j < addr_tokenid.length; j++) {\n                uint tokenId = bytesToUint(addr_tokenid[j]);\n\n                emit print_address(addr);\n                emit print_uint(tokenId);\n\n                // ERC721 smart_contract = ERC721(addr);\n                // smart_contract.safeTransferFrom(_from, _to, tokenId, \"\");\n            }\n        }\n    }\n\n    function splitString(string memory input, string memory delimiter) internal returns(bytes[] memory) {\n        bytes memory input_byte = bytes(input);\n        bytes memory delimiter_byte = bytes(delimiter);\n        for(uint i; i < input_byte.length ; i++){\n            if (input_byte[i] != delimiter_byte[0]) {\n                splitStringTemp.push(input_byte[i]);\n            } else { \n                splitStringResult.push(splitStringTemp);\n                splitStringTemp = \"\";\n            }\n        }\n        if (input_byte[input_byte.length-1] != delimiter_byte[0]) { \n            splitStringResult.push(splitStringTemp);\n            splitStringTemp = \"\";\n        }\n        return splitStringResult;\n    }\n    \n    function bytesToUint(bytes memory _input) pure internal returns (uint result) {\n        uint i;\n        result = 0;\n        for (i = 0; i < _input.length; i++) {\n            uint c = uint(uint8(_input[i]));\n            if (c >= 48 && c <= 57) {\n                result = result * 10 + (c - 48);\n            }\n        }\n    }\n    \n    function bytesToAddress(bytes memory _address) internal pure returns (address _parsedAddress) {\n        uint160 iaddr = 0;\n        uint160 b1;\n        uint160 b2;\n        for (uint i = 2; i < 2 + 2 * 20; i += 2) {\n            iaddr *= 256;\n            b1 = uint160(uint8(_address[i]));\n            b2 = uint160(uint8(_address[i + 1]));\n            if ((b1 >= 97) && (b1 <= 102)) {\n                b1 -= 87;\n            } else if ((b1 >= 65) && (b1 <= 70)) {\n                b1 -= 55;\n            } else if ((b1 >= 48) && (b1 <= 57)) {\n                b1 -= 48;\n            }\n            if ((b2 >= 97) && (b2 <= 102)) {\n                b2 -= 87;\n            } else if ((b2 >= 65) && (b2 <= 70)) {\n                b2 -= 55;\n            } else if ((b2 >= 48) && (b2 <= 57)) {\n                b2 -= 48;\n            }\n            iaddr += (b1 * 16 + b2);\n        }\n        return address(iaddr);\n    }\n}",
  "sourcePath": "/Users/heesoohwang/truffle/Batch_NFT/contracts/BatchTransfer.sol",
  "compiler": {
    "name": "solc",
    "version": "0.8.0+commit.c7dfd78e.Emscripten.clang"
  },
  "schemaVersion": "3.4.3",
  "updatedAt": "2021-09-15T22:42:06.997Z",
  "networkType": "ethereum",
  "devdoc": {
    "kind": "dev",
    "methods": {},
    "version": 1
  },
  "userdoc": {
    "kind": "user",
    "methods": {},
    "version": 1
  }
}