{
  "contractName": "NotDate",
  "abi": [
    {
      "inputs": [],
      "stateMutability": "nonpayable",
      "type": "constructor"
    },
    {
      "anonymous": false,
      "inputs": [
        {
          "indexed": true,
          "internalType": "address",
          "name": "owner",
          "type": "address"
        },
        {
          "indexed": true,
          "internalType": "address",
          "name": "approved",
          "type": "address"
        },
        {
          "indexed": true,
          "internalType": "uint256",
          "name": "tokenId",
          "type": "uint256"
        }
      ],
      "name": "Approval",
      "type": "event"
    },
    {
      "anonymous": false,
      "inputs": [
        {
          "indexed": true,
          "internalType": "address",
          "name": "owner",
          "type": "address"
        },
        {
          "indexed": true,
          "internalType": "address",
          "name": "operator",
          "type": "address"
        },
        {
          "indexed": false,
          "internalType": "bool",
          "name": "approved",
          "type": "bool"
        }
      ],
      "name": "ApprovalForAll",
      "type": "event"
    },
    {
      "anonymous": false,
      "inputs": [
        {
          "indexed": true,
          "internalType": "address",
          "name": "previousOwner",
          "type": "address"
        },
        {
          "indexed": true,
          "internalType": "address",
          "name": "newOwner",
          "type": "address"
        }
      ],
      "name": "OwnershipTransferred",
      "type": "event"
    },
    {
      "anonymous": false,
      "inputs": [
        {
          "indexed": true,
          "internalType": "address",
          "name": "from",
          "type": "address"
        },
        {
          "indexed": true,
          "internalType": "address",
          "name": "to",
          "type": "address"
        },
        {
          "indexed": true,
          "internalType": "uint256",
          "name": "tokenId",
          "type": "uint256"
        }
      ],
      "name": "Transfer",
      "type": "event"
    },
    {
      "inputs": [
        {
          "internalType": "address",
          "name": "to",
          "type": "address"
        },
        {
          "internalType": "uint256",
          "name": "tokenId",
          "type": "uint256"
        }
      ],
      "name": "approve",
      "outputs": [],
      "stateMutability": "nonpayable",
      "type": "function"
    },
    {
      "inputs": [
        {
          "internalType": "address",
          "name": "owner",
          "type": "address"
        }
      ],
      "name": "balanceOf",
      "outputs": [
        {
          "internalType": "uint256",
          "name": "",
          "type": "uint256"
        }
      ],
      "stateMutability": "view",
      "type": "function",
      "constant": true
    },
    {
      "inputs": [
        {
          "internalType": "uint256",
          "name": "tokenId",
          "type": "uint256"
        }
      ],
      "name": "getApproved",
      "outputs": [
        {
          "internalType": "address",
          "name": "",
          "type": "address"
        }
      ],
      "stateMutability": "view",
      "type": "function",
      "constant": true
    },
    {
      "inputs": [
        {
          "internalType": "address",
          "name": "owner",
          "type": "address"
        },
        {
          "internalType": "address",
          "name": "operator",
          "type": "address"
        }
      ],
      "name": "isApprovedForAll",
      "outputs": [
        {
          "internalType": "bool",
          "name": "",
          "type": "bool"
        }
      ],
      "stateMutability": "view",
      "type": "function",
      "constant": true
    },
    {
      "inputs": [],
      "name": "name",
      "outputs": [
        {
          "internalType": "string",
          "name": "",
          "type": "string"
        }
      ],
      "stateMutability": "view",
      "type": "function",
      "constant": true
    },
    {
      "inputs": [],
      "name": "owner",
      "outputs": [
        {
          "internalType": "address",
          "name": "",
          "type": "address"
        }
      ],
      "stateMutability": "view",
      "type": "function",
      "constant": true
    },
    {
      "inputs": [],
      "name": "renounceOwnership",
      "outputs": [],
      "stateMutability": "nonpayable",
      "type": "function"
    },
    {
      "inputs": [
        {
          "internalType": "address",
          "name": "from",
          "type": "address"
        },
        {
          "internalType": "address",
          "name": "to",
          "type": "address"
        },
        {
          "internalType": "uint256",
          "name": "tokenId",
          "type": "uint256"
        }
      ],
      "name": "safeTransferFrom",
      "outputs": [],
      "stateMutability": "nonpayable",
      "type": "function"
    },
    {
      "inputs": [
        {
          "internalType": "address",
          "name": "from",
          "type": "address"
        },
        {
          "internalType": "address",
          "name": "to",
          "type": "address"
        },
        {
          "internalType": "uint256",
          "name": "tokenId",
          "type": "uint256"
        },
        {
          "internalType": "bytes",
          "name": "_data",
          "type": "bytes"
        }
      ],
      "name": "safeTransferFrom",
      "outputs": [],
      "stateMutability": "nonpayable",
      "type": "function"
    },
    {
      "inputs": [
        {
          "internalType": "address",
          "name": "operator",
          "type": "address"
        },
        {
          "internalType": "bool",
          "name": "approved",
          "type": "bool"
        }
      ],
      "name": "setApprovalForAll",
      "outputs": [],
      "stateMutability": "nonpayable",
      "type": "function"
    },
    {
      "inputs": [
        {
          "internalType": "bytes4",
          "name": "interfaceId",
          "type": "bytes4"
        }
      ],
      "name": "supportsInterface",
      "outputs": [
        {
          "internalType": "bool",
          "name": "",
          "type": "bool"
        }
      ],
      "stateMutability": "view",
      "type": "function",
      "constant": true
    },
    {
      "inputs": [],
      "name": "symbol",
      "outputs": [
        {
          "internalType": "string",
          "name": "",
          "type": "string"
        }
      ],
      "stateMutability": "view",
      "type": "function",
      "constant": true
    },
    {
      "inputs": [
        {
          "internalType": "uint256",
          "name": "tokenId",
          "type": "uint256"
        }
      ],
      "name": "tokenURI",
      "outputs": [
        {
          "internalType": "string",
          "name": "",
          "type": "string"
        }
      ],
      "stateMutability": "view",
      "type": "function",
      "constant": true
    },
    {
      "inputs": [
        {
          "internalType": "address",
          "name": "from",
          "type": "address"
        },
        {
          "internalType": "address",
          "name": "to",
          "type": "address"
        },
        {
          "internalType": "uint256",
          "name": "tokenId",
          "type": "uint256"
        }
      ],
      "name": "transferFrom",
      "outputs": [],
      "stateMutability": "nonpayable",
      "type": "function"
    },
    {
      "inputs": [
        {
          "internalType": "address",
          "name": "newOwner",
          "type": "address"
        }
      ],
      "name": "transferOwnership",
      "outputs": [],
      "stateMutability": "nonpayable",
      "type": "function"
    },
    {
      "inputs": [
        {
          "internalType": "string",
          "name": "baseURI",
          "type": "string"
        }
      ],
      "name": "setBaseURI",
      "outputs": [],
      "stateMutability": "nonpayable",
      "type": "function"
    },
    {
      "inputs": [
        {
          "internalType": "uint16",
          "name": "year",
          "type": "uint16"
        },
        {
          "internalType": "uint8",
          "name": "month",
          "type": "uint8"
        },
        {
          "internalType": "uint8",
          "name": "day",
          "type": "uint8"
        },
        {
          "internalType": "string",
          "name": "title",
          "type": "string"
        }
      ],
      "name": "claim",
      "outputs": [],
      "stateMutability": "payable",
      "type": "function",
      "payable": true
    },
    {
      "inputs": [
        {
          "internalType": "uint16",
          "name": "year",
          "type": "uint16"
        },
        {
          "internalType": "uint8",
          "name": "month",
          "type": "uint8"
        },
        {
          "internalType": "uint8",
          "name": "day",
          "type": "uint8"
        }
      ],
      "name": "ownerOf",
      "outputs": [
        {
          "internalType": "address",
          "name": "",
          "type": "address"
        }
      ],
      "stateMutability": "view",
      "type": "function",
      "constant": true
    },
    {
      "inputs": [
        {
          "internalType": "uint256",
          "name": "tokenId",
          "type": "uint256"
        }
      ],
      "name": "ownerOf",
      "outputs": [
        {
          "internalType": "address",
          "name": "",
          "type": "address"
        }
      ],
      "stateMutability": "view",
      "type": "function",
      "constant": true
    },
    {
      "inputs": [
        {
          "internalType": "uint256",
          "name": "tokenId",
          "type": "uint256"
        }
      ],
      "name": "get",
      "outputs": [
        {
          "internalType": "uint16",
          "name": "year",
          "type": "uint16"
        },
        {
          "internalType": "uint8",
          "name": "month",
          "type": "uint8"
        },
        {
          "internalType": "uint8",
          "name": "day",
          "type": "uint8"
        },
        {
          "internalType": "uint8",
          "name": "color",
          "type": "uint8"
        },
        {
          "internalType": "string",
          "name": "title",
          "type": "string"
        }
      ],
      "stateMutability": "view",
      "type": "function",
      "constant": true
    },
    {
      "inputs": [
        {
          "internalType": "uint256",
          "name": "tokenId",
          "type": "uint256"
        }
      ],
      "name": "titleOf",
      "outputs": [
        {
          "internalType": "string",
          "name": "",
          "type": "string"
        }
      ],
      "stateMutability": "view",
      "type": "function",
      "constant": true
    },
    {
      "inputs": [
        {
          "internalType": "uint16",
          "name": "year",
          "type": "uint16"
        },
        {
          "internalType": "uint8",
          "name": "month",
          "type": "uint8"
        },
        {
          "internalType": "uint8",
          "name": "day",
          "type": "uint8"
        }
      ],
      "name": "titleOf",
      "outputs": [
        {
          "internalType": "string",
          "name": "",
          "type": "string"
        }
      ],
      "stateMutability": "view",
      "type": "function",
      "constant": true
    },
    {
      "inputs": [
        {
          "internalType": "uint256",
          "name": "tokenId",
          "type": "uint256"
        },
        {
          "internalType": "string",
          "name": "title",
          "type": "string"
        }
      ],
      "name": "changeTitleOf",
      "outputs": [],
      "stateMutability": "nonpayable",
      "type": "function"
    },
    {
      "inputs": [
        {
          "internalType": "uint16",
          "name": "year",
          "type": "uint16"
        },
        {
          "internalType": "uint8",
          "name": "month",
          "type": "uint8"
        },
        {
          "internalType": "uint8",
          "name": "day",
          "type": "uint8"
        },
        {
          "internalType": "string",
          "name": "title",
          "type": "string"
        }
      ],
      "name": "changeTitleOf",
      "outputs": [],
      "stateMutability": "nonpayable",
      "type": "function"
    },
    {
      "inputs": [
        {
          "internalType": "uint16",
          "name": "year",
          "type": "uint16"
        }
      ],
      "name": "isLeapYear",
      "outputs": [
        {
          "internalType": "bool",
          "name": "",
          "type": "bool"
        }
      ],
      "stateMutability": "pure",
      "type": "function",
      "constant": true
    },
    {
      "inputs": [
        {
          "internalType": "uint8",
          "name": "month",
          "type": "uint8"
        },
        {
          "internalType": "uint16",
          "name": "year",
          "type": "uint16"
        }
      ],
      "name": "numDaysInMonth",
      "outputs": [
        {
          "internalType": "uint8",
          "name": "",
          "type": "uint8"
        }
      ],
      "stateMutability": "pure",
      "type": "function",
      "constant": true
    },
    {
      "inputs": [
        {
          "internalType": "uint256",
          "name": "timestamp",
          "type": "uint256"
        }
      ],
      "name": "timestampToDate",
      "outputs": [
        {
          "internalType": "uint16",
          "name": "year",
          "type": "uint16"
        },
        {
          "internalType": "uint8",
          "name": "month",
          "type": "uint8"
        },
        {
          "internalType": "uint8",
          "name": "day",
          "type": "uint8"
        }
      ],
      "stateMutability": "pure",
      "type": "function",
      "constant": true
    }
  ],
  "bytecode": "0x60806040523480156200001157600080fd5b506040518060400160405280600781526020017f4e6f7444617465000000000000000000000000000000000000000000000000008152506040518060400160405280600481526020017f4e444154000000000000000000000000000000000000000000000000000000008152506200009e62000092620003c660201b60201c565b620003ce60201b60201c565b8160019080519060200190620000b69291906200102a565b508060029080519060200190620000cf9291906200102a565b505050620001186040518060400160405280601d81526020017f68747470733a2f2f646174652e6b69652e636f6465732f746f6b656e2f0000008152506200049260201b60201c565b62000165600180600160046040518060400160405280600681526020017f4f524947494e00000000000000000000000000000000000000000000000000008152506200053d60201b60201c565b60008060006200017b426200065d60201b60201c565b925092509250620001cc83838360046040518060400160405280601081526020017f4461746520546f6b656e205374617274000000000000000000000000000000008152506200053d60201b60201c565b6200021b6107df6007601e60066040518060400160405280600b81526020017f4554482047454e455349530000000000000000000000000000000000000000008152506200053d60201b60201c565b6200024e6105ac6004600f600560405180606001604052806026815260200162005d5b602691396200053d60201b60201c565b62000281610645600b6005600160405180606001604052806028815260200162005d33602891396200053d60201b60201c565b620002d061061c6004601760026040518060400160405280601381526020017f546f2062652c206f72206e6f7420746f206265000000000000000000000000008152506200053d60201b60201c565b6200031f6107b16007601460036040518060400160405280601681526020017f4f6e6520736d616c6c207374657020666f72206d616e000000000000000000008152506200053d60201b60201c565b6200036e6107c26006600c60006040518060400160405280600381526020017f43424400000000000000000000000000000000000000000000000000000000008152506200053d60201b60201c565b620003bd6107b36006601c60076040518060400160405280600f81526020017f456c6f6e277320426972746864617900000000000000000000000000000000008152506200053d60201b60201c565b50505062001784565b600033905090565b60008060009054906101000a900473ffffffffffffffffffffffffffffffffffffffff169050816000806101000a81548173ffffffffffffffffffffffffffffffffffffffff021916908373ffffffffffffffffffffffffffffffffffffffff1602179055508173ffffffffffffffffffffffffffffffffffffffff168173ffffffffffffffffffffffffffffffffffffffff167f8be0079c531659141344cd1fd0a4f28419497f9722a3daafe3b4186f6b6457e060405160405180910390a35050565b620004a2620003c660201b60201c565b73ffffffffffffffffffffffffffffffffffffffff16620004c86200089960201b60201c565b73ffffffffffffffffffffffffffffffffffffffff161462000521576040517f08c379a000000000000000000000000000000000000000000000000000000000815260040162000518906200140e565b60405180910390fd5b8060089080519060200190620005399291906200102a565b5050565b600062000552868686620008c260201b60201c565b90506040518060a001604052808761ffff1681526020018660ff1681526020018560ff1681526020018460ff168152602001838152506007600083815260200190815260200160002060008201518160000160006101000a81548161ffff021916908361ffff16021790555060208201518160000160026101000a81548160ff021916908360ff16021790555060408201518160000160036101000a81548160ff021916908360ff16021790555060608201518160000160046101000a81548160ff021916908360ff16021790555060808201518160010190805190602001906200063f9291906200102a565b509050506200065533826200096f60201b60201c565b505050505050565b600080600080620afa6c6201518086620006789190620014dc565b6200068491906200147f565b9050600062023ab16000831015620006ad5762023ab083620006a7919062001575565b620006af565b825b620006bb9190620014dc565b9050600062023ab182620006d0919062001514565b83620006dd919062001575565b9050600061016d62023ab083620006f59190620014dc565b618eac84620007059190620014dc565b6105b485620007159190620014dc565b8562000722919062001575565b6200072e91906200147f565b6200073a919062001575565b620007469190620014dc565b90506000606482620007599190620014dc565b600483620007689190620014dc565b8361016d62000778919062001514565b6200078491906200147f565b62000790919062001575565b836200079d919062001575565b9050600060996002836005620007b4919062001514565b620007c091906200147f565b620007cc9190620014dc565b9050600160056002836099620007e3919062001514565b620007ef91906200147f565b620007fb9190620014dc565b8362000808919062001575565b6200081491906200147f565b9650600a811062000834576009816200082e919062001575565b62000844565b6003816200084391906200147f565b5b975060028860ff1611156200085b5760006200085e565b60015b60ff166101908662000871919062001514565b846200087e91906200147f565b6200088a91906200147f565b98505050505050509193909250565b60008060009054906101000a900473ffffffffffffffffffffffffffffffffffffffff16905090565b60008160ff16600111158015620008f05750620008e683856200099560201b60201c565b60ff168260ff1611155b620008fa57600080fd5b60018260ff16601f60018660ff1662000914919062001575565b62000920919062001514565b61017460018861ffff1662000936919062001575565b62000942919062001514565b6200094e91906200147f565b6200095a91906200147f565b62000966919062001575565b90509392505050565b6200099182826040518060200160405280600081525062000aef60201b60201c565b5050565b60008260ff16600111158015620009b05750600c8360ff1611155b620009f2576040517f08c379a0000000000000000000000000000000000000000000000000000000008152600401620009e990620013ca565b60405180910390fd5b8161ffff166001111562000a3d576040517f08c379a000000000000000000000000000000000000000000000000000000000815260040162000a349062001430565b60405180910390fd5b60018360ff16148062000a53575060038360ff16145b8062000a62575060058360ff16145b8062000a71575060078360ff16145b8062000a80575060088360ff16145b8062000a8f5750600a8360ff16145b8062000a9e5750600c8360ff16145b1562000aae57601f905062000ae9565b60028360ff16141562000ae45762000acc8262000b5d60201b60201c565b62000ad957601c62000adc565b601d5b905062000ae9565b601e90505b92915050565b62000b01838362000c0660201b60201c565b62000b16600084848462000dec60201b60201c565b62000b58576040517f08c379a000000000000000000000000000000000000000000000000000000000815260040162000b4f9062001386565b60405180910390fd5b505050565b60008161ffff166001111562000baa576040517f08c379a000000000000000000000000000000000000000000000000000000000815260040162000ba19062001430565b60405180910390fd5b600060048362000bbb919062001694565b61ffff1614801562000bdf5750600060648362000bd9919062001694565b61ffff16145b801562000bff575060006101908362000bf9919062001694565b61ffff16145b9050919050565b600073ffffffffffffffffffffffffffffffffffffffff168273ffffffffffffffffffffffffffffffffffffffff16141562000c79576040517f08c379a000000000000000000000000000000000000000000000000000000000815260040162000c7090620013ec565b60405180910390fd5b62000c8a8162000fa660201b60201c565b1562000ccd576040517f08c379a000000000000000000000000000000000000000000000000000000000815260040162000cc490620013a8565b60405180910390fd5b62000ce1600083836200101260201b60201c565b6001600460008473ffffffffffffffffffffffffffffffffffffffff1673ffffffffffffffffffffffffffffffffffffffff168152602001908152602001600020600082825462000d3391906200147f565b92505081905550816003600083815260200190815260200160002060006101000a81548173ffffffffffffffffffffffffffffffffffffffff021916908373ffffffffffffffffffffffffffffffffffffffff160217905550808273ffffffffffffffffffffffffffffffffffffffff16600073ffffffffffffffffffffffffffffffffffffffff167fddf252ad1be2c89b69c2b068fc378daa952ba7f163c4a11628f55a4df523b3ef60405160405180910390a45050565b600062000e1a8473ffffffffffffffffffffffffffffffffffffffff166200101760201b62001e831760201c565b1562000f99578373ffffffffffffffffffffffffffffffffffffffff1663150b7a0262000e4c620003c660201b60201c565b8786866040518563ffffffff1660e01b815260040162000e70949392919062001332565b602060405180830381600087803b15801562000e8b57600080fd5b505af192505050801562000ebf57506040513d601f19601f8201168201806040525081019062000ebc9190620010f1565b60015b62000f48573d806000811462000ef2576040519150601f19603f3d011682016040523d82523d6000602084013e62000ef7565b606091505b5060008151141562000f40576040517f08c379a000000000000000000000000000000000000000000000000000000000815260040162000f379062001386565b60405180910390fd5b805181602001fd5b63150b7a0260e01b7bffffffffffffffffffffffffffffffffffffffffffffffffffffffff1916817bffffffffffffffffffffffffffffffffffffffffffffffffffffffff19161491505062000f9e565b600190505b949350505050565b60008073ffffffffffffffffffffffffffffffffffffffff166003600084815260200190815260200160002060009054906101000a900473ffffffffffffffffffffffffffffffffffffffff1673ffffffffffffffffffffffffffffffffffffffff1614159050919050565b505050565b600080823b905060008111915050919050565b82805462001038906200165e565b90600052602060002090601f0160209004810192826200105c5760008555620010a8565b82601f106200107757805160ff1916838001178555620010a8565b82800160010185558215620010a8579182015b82811115620010a75782518255916020019190600101906200108a565b5b509050620010b79190620010bb565b5090565b5b80821115620010d6576000816000905550600101620010bc565b5090565b600081519050620010eb816200176a565b92915050565b6000602082840312156200110457600080fd5b60006200111484828501620010da565b91505092915050565b6200112881620015b0565b82525050565b60006200113b8262001452565b6200114781856200145d565b93506200115981856020860162001628565b620011648162001759565b840191505092915050565b60006200117e6032836200146e565b91507f4552433732313a207472616e7366657220746f206e6f6e20455243373231526560008301527f63656976657220696d706c656d656e74657200000000000000000000000000006020830152604082019050919050565b6000620011e6601c836200146e565b91507f4552433732313a20746f6b656e20616c7265616479206d696e746564000000006000830152602082019050919050565b600062001228601e836200146e565b91507f6d6f6e7468206d757374206265206265747765656e203120616e6420313200006000830152602082019050919050565b60006200126a6020836200146e565b91507f4552433732313a206d696e7420746f20746865207a65726f20616464726573736000830152602082019050919050565b6000620012ac6020836200146e565b91507f4f776e61626c653a2063616c6c6572206973206e6f7420746865206f776e65726000830152602082019050919050565b6000620012ee601e836200146e565b91507f79656172206d75737420626520626967676572206f7220657175616c203100006000830152602082019050919050565b6200132c816200161e565b82525050565b60006080820190506200134960008301876200111d565b6200135860208301866200111d565b62001367604083018562001321565b81810360608301526200137b81846200112e565b905095945050505050565b60006020820190508181036000830152620013a1816200116f565b9050919050565b60006020820190508181036000830152620013c381620011d7565b9050919050565b60006020820190508181036000830152620013e58162001219565b9050919050565b6000602082019050818103600083015262001407816200125b565b9050919050565b6000602082019050818103600083015262001429816200129d565b9050919050565b600060208201905081810360008301526200144b81620012df565b9050919050565b600081519050919050565b600082825260208201905092915050565b600082825260208201905092915050565b60006200148c826200161e565b915062001499836200161e565b9250827fffffffffffffffffffffffffffffffffffffffffffffffffffffffffffffffff03821115620014d157620014d0620016cc565b5b828201905092915050565b6000620014e9826200161e565b9150620014f6836200161e565b925082620015095762001508620016fb565b5b828204905092915050565b600062001521826200161e565b91506200152e836200161e565b9250817fffffffffffffffffffffffffffffffffffffffffffffffffffffffffffffffff04831182151516156200156a5762001569620016cc565b5b828202905092915050565b600062001582826200161e565b91506200158f836200161e565b925082821015620015a557620015a4620016cc565b5b828203905092915050565b6000620015bd82620015fe565b9050919050565b60007fffffffff0000000000000000000000000000000000000000000000000000000082169050919050565b600061ffff82169050919050565b600073ffffffffffffffffffffffffffffffffffffffff82169050919050565b6000819050919050565b60005b83811015620016485780820151818401526020810190506200162b565b8381111562001658576000848401525b50505050565b600060028204905060018216806200167757607f821691505b602082108114156200168e576200168d6200172a565b5b50919050565b6000620016a182620015f0565b9150620016ae83620015f0565b925082620016c157620016c0620016fb565b5b828206905092915050565b7f4e487b7100000000000000000000000000000000000000000000000000000000600052601160045260246000fd5b7f4e487b7100000000000000000000000000000000000000000000000000000000600052601260045260246000fd5b7f4e487b7100000000000000000000000000000000000000000000000000000000600052602260045260246000fd5b6000601f19601f8301169050919050565b6200177581620015c4565b81146200178157600080fd5b50565b61459f80620017946000396000f3fe60806040526004361061019c5760003560e01c8063715018a6116100ec578063b3a083fa1161008a578063daf7c16611610064578063daf7c16614610603578063de5101af14610640578063e985e9c51461067f578063f2fde38b146106bc5761019c565b8063b3a083fa14610574578063b88d4fde1461059d578063c87b56dd146105c65761019c565b806395d89b41116100c657806395d89b41146104a6578063a22cb465146104d1578063a6f0e577146104fa578063a8c24330146105375761019c565b8063715018a6146104235780638da5cb5b1461043a5780639507d39a146104655761019c565b806339eac6ab1161015957806355f804b31161013357806355f804b3146103645780635b6f29b71461038d5780636352211e146103a957806370a08231146103e65761019c565b806339eac6ab146102c157806342842e0e146102fe5780635333f08f146103275761019c565b806301ffc9a7146101a157806306fdde03146101de578063081812fc14610209578063095ea7b314610246578063232f8ecc1461026f57806323b872dd14610298575b600080fd5b3480156101ad57600080fd5b506101c860048036038101906101c39190613083565b6106e5565b6040516101d59190613c4f565b60405180910390f35b3480156101ea57600080fd5b506101f36107c7565b6040516102009190613c6a565b60405180910390f35b34801561021557600080fd5b50610230600480360381019061022b9190613289565b610859565b60405161023d9190613be8565b60405180910390f35b34801561025257600080fd5b5061026d60048036038101906102689190613047565b6108de565b005b34801561027b57600080fd5b506102966004803603810190610291919061320e565b6109f6565b005b3480156102a457600080fd5b506102bf60048036038101906102ba9190612f41565b610a62565b005b3480156102cd57600080fd5b506102e860048036038101906102e3919061313f565b610ac2565b6040516102f59190613be8565b60405180910390f35b34801561030a57600080fd5b5061032560048036038101906103209190612f41565b610ae0565b005b34801561033357600080fd5b5061034e60048036038101906103499190613306565b610b00565b60405161035b9190614060565b60405180910390f35b34801561037057600080fd5b5061038b600480360381019061038691906130d5565b610c3f565b005b6103a760048036038101906103a2919061318e565b610cd5565b005b3480156103b557600080fd5b506103d060048036038101906103cb9190613289565b610f7d565b6040516103dd9190613be8565b60405180910390f35b3480156103f257600080fd5b5061040d60048036038101906104089190612edc565b61102f565b60405161041a9190613fdd565b60405180910390f35b34801561042f57600080fd5b506104386110e7565b005b34801561044657600080fd5b5061044f61116f565b60405161045c9190613be8565b60405180910390f35b34801561047157600080fd5b5061048c60048036038101906104879190613289565b611198565b60405161049d959493929190613f83565b60405180910390f35b3480156104b257600080fd5b506104bb611340565b6040516104c89190613c6a565b60405180910390f35b3480156104dd57600080fd5b506104f860048036038101906104f3919061300b565b6113d2565b005b34801561050657600080fd5b50610521600480360381019061051c9190613116565b611553565b60405161052e9190613c4f565b60405180910390f35b34801561054357600080fd5b5061055e6004803603810190610559919061313f565b6115f1565b60405161056b9190613c6a565b60405180910390f35b34801561058057600080fd5b5061059b600480360381019061059691906132b2565b611789565b005b3480156105a957600080fd5b506105c460048036038101906105bf9190612f90565b611876565b005b3480156105d257600080fd5b506105ed60048036038101906105e89190613289565b6118d8565b6040516105fa9190613c6a565b60405180910390f35b34801561060f57600080fd5b5061062a60048036038101906106259190613289565b61197f565b6040516106379190613c6a565b60405180910390f35b34801561064c57600080fd5b5061066760048036038101906106629190613289565b611b01565b60405161067693929190613f4c565b60405180910390f35b34801561068b57600080fd5b506106a660048036038101906106a19190612f05565b611cf7565b6040516106b39190613c4f565b60405180910390f35b3480156106c857600080fd5b506106e360048036038101906106de9190612edc565b611d8b565b005b60007f80ac58cd000000000000000000000000000000000000000000000000000000007bffffffffffffffffffffffffffffffffffffffffffffffffffffffff1916827bffffffffffffffffffffffffffffffffffffffffffffffffffffffff191614806107b057507f5b5e139f000000000000000000000000000000000000000000000000000000007bffffffffffffffffffffffffffffffffffffffffffffffffffffffff1916827bffffffffffffffffffffffffffffffffffffffffffffffffffffffff1916145b806107c057506107bf82611e96565b5b9050919050565b6060600180546107d690614335565b80601f016020809104026020016040519081016040528092919081815260200182805461080290614335565b801561084f5780601f106108245761010080835404028352916020019161084f565b820191906000526020600020905b81548152906001019060200180831161083257829003601f168201915b5050505050905090565b600061086482611f00565b6108a3576040517f08c379a000000000000000000000000000000000000000000000000000000000815260040161089a90613e2c565b60405180910390fd5b6005600083815260200190815260200160002060009054906101000a900473ffffffffffffffffffffffffffffffffffffffff169050919050565b60006108e982610f7d565b90508073ffffffffffffffffffffffffffffffffffffffff168373ffffffffffffffffffffffffffffffffffffffff16141561095a576040517f08c379a000000000000000000000000000000000000000000000000000000000815260040161095190613eac565b60405180910390fd5b8073ffffffffffffffffffffffffffffffffffffffff16610979611f6c565b73ffffffffffffffffffffffffffffffffffffffff1614806109a857506109a7816109a2611f6c565b611cf7565b5b6109e7576040517f08c379a00000000000000000000000000000000000000000000000000000000081526004016109de90613d8c565b60405180910390fd5b6109f18383611f74565b505050565b610a09610a0485858561202d565b611f00565b610a48576040517f08c379a0000000000000000000000000000000000000000000000000000000008152600401610a3f90613eec565b60405180910390fd5b610a5c610a5685858561202d565b82611789565b50505050565b610a73610a6d611f6c565b826120c2565b610ab2576040517f08c379a0000000000000000000000000000000000000000000000000000000008152600401610aa990613ecc565b60405180910390fd5b610abd8383836121a0565b505050565b6000610ad7610ad285858561202d565b610f7d565b90509392505050565b610afb83838360405180602001604052806000815250611876565b505050565b60008260ff16600111158015610b1a5750600c8360ff1611155b610b59576040517f08c379a0000000000000000000000000000000000000000000000000000000008152600401610b5090613dec565b60405180910390fd5b8161ffff1660011115610ba1576040517f08c379a0000000000000000000000000000000000000000000000000000000008152600401610b9890613f2c565b60405180910390fd5b60018360ff161480610bb6575060038360ff16145b80610bc4575060058360ff16145b80610bd2575060078360ff16145b80610be0575060088360ff16145b80610bee5750600a8360ff16145b80610bfc5750600c8360ff16145b15610c0a57601f9050610c39565b60028360ff161415610c3457610c1f82611553565b610c2a57601c610c2d565b601d5b9050610c39565b601e90505b92915050565b610c47611f6c565b73ffffffffffffffffffffffffffffffffffffffff16610c6561116f565b73ffffffffffffffffffffffffffffffffffffffff1614610cbb576040517f08c379a0000000000000000000000000000000000000000000000000000000008152600401610cb290613e4c565b60405180910390fd5b8060089080519060200190610cd1929190612c8c565b5050565b662386f26fc100003414610d1e576040517f08c379a0000000000000000000000000000000000000000000000000000000008152600401610d1590613d0c565b60405180910390fd5b6000806000610d2c42611b01565b9250925092508261ffff168861ffff161180610d6057508261ffff168861ffff16148015610d5f57508160ff168760ff16115b5b80610d9457508261ffff168861ffff16148015610d8257508160ff168760ff16145b8015610d9357508060ff168660ff16115b5b15610dd4576040517f08c379a0000000000000000000000000000000000000000000000000000000008152600401610dcb90613f0c565b60405180910390fd5b600080620f4240610e2b8b8b8b8b8b8080601f016020809104026020016040519081016040528093929190818152602001838380828437600081840152601f19601f820116905080830192505050505050506123fc565b610e3591906143e1565b90506103e8811015610e4a5760079150610ecb565b611770811015610e5d5760069150610eca565b613e80811015610e705760059150610ec9565b620101d0811015610e845760049150610ec8565b62028870811015610e985760039150610ec7565b620595b0811015610eac5760029150610ec6565b620a2990811015610ec05760019150610ec5565b600091505b5b5b5b5b5b5b610f1c8a8a8a858b8b8080601f016020809104026020016040519081016040528093929190818152602001838380828437600081840152601f19601f8201169050808301925050505050505061243c565b610f2461116f565b73ffffffffffffffffffffffffffffffffffffffff166108fc662386f26fc100009081150290604051600060405180830381858888f19350505050158015610f70573d6000803e3d6000fd5b5050505050505050505050565b6000806003600084815260200190815260200160002060009054906101000a900473ffffffffffffffffffffffffffffffffffffffff169050600073ffffffffffffffffffffffffffffffffffffffff168173ffffffffffffffffffffffffffffffffffffffff161415611026576040517f08c379a000000000000000000000000000000000000000000000000000000000815260040161101d90613dcc565b60405180910390fd5b80915050919050565b60008073ffffffffffffffffffffffffffffffffffffffff168273ffffffffffffffffffffffffffffffffffffffff1614156110a0576040517f08c379a000000000000000000000000000000000000000000000000000000000815260040161109790613dac565b60405180910390fd5b600460008373ffffffffffffffffffffffffffffffffffffffff1673ffffffffffffffffffffffffffffffffffffffff168152602001908152602001600020549050919050565b6110ef611f6c565b73ffffffffffffffffffffffffffffffffffffffff1661110d61116f565b73ffffffffffffffffffffffffffffffffffffffff1614611163576040517f08c379a000000000000000000000000000000000000000000000000000000000815260040161115a90613e4c565b60405180910390fd5b61116d600061254a565b565b60008060009054906101000a900473ffffffffffffffffffffffffffffffffffffffff16905090565b60008060008060606111a986611f00565b6111e8576040517f08c379a00000000000000000000000000000000000000000000000000000000081526004016111df90613eec565b60405180910390fd5b6000600760008881526020019081526020016000206040518060a00160405290816000820160009054906101000a900461ffff1661ffff1661ffff1681526020016000820160029054906101000a900460ff1660ff1660ff1681526020016000820160039054906101000a900460ff1660ff1660ff1681526020016000820160049054906101000a900460ff1660ff1660ff16815260200160018201805461128f90614335565b80601f01602080910402602001604051908101604052809291908181526020018280546112bb90614335565b80156113085780601f106112dd57610100808354040283529160200191611308565b820191906000526020600020905b8154815290600101906020018083116112eb57829003601f168201915b505050505081525050905080600001519550806020015194508060400151935080606001519250806080015191505091939590929450565b60606002805461134f90614335565b80601f016020809104026020016040519081016040528092919081815260200182805461137b90614335565b80156113c85780601f1061139d576101008083540402835291602001916113c8565b820191906000526020600020905b8154815290600101906020018083116113ab57829003601f168201915b5050505050905090565b6113da611f6c565b73ffffffffffffffffffffffffffffffffffffffff168273ffffffffffffffffffffffffffffffffffffffff161415611448576040517f08c379a000000000000000000000000000000000000000000000000000000000815260040161143f90613d4c565b60405180910390fd5b8060066000611455611f6c565b73ffffffffffffffffffffffffffffffffffffffff1673ffffffffffffffffffffffffffffffffffffffff16815260200190815260200160002060008473ffffffffffffffffffffffffffffffffffffffff1673ffffffffffffffffffffffffffffffffffffffff16815260200190815260200160002060006101000a81548160ff0219169083151502179055508173ffffffffffffffffffffffffffffffffffffffff16611502611f6c565b73ffffffffffffffffffffffffffffffffffffffff167f17307eab39ab6107e8899845ad3d59bd9653f200f220920489ca2b5937696c31836040516115479190613c4f565b60405180910390a35050565b60008161ffff166001111561159d576040517f08c379a000000000000000000000000000000000000000000000000000000000815260040161159490613f2c565b60405180910390fd5b60006004836115ac91906143b0565b61ffff161480156115cd575060006064836115c791906143b0565b61ffff16145b80156115ea57506000610190836115e491906143b0565b61ffff16145b9050919050565b606061160661160185858561202d565b611f00565b611645576040517f08c379a000000000000000000000000000000000000000000000000000000000815260040161163c90613eec565b60405180910390fd5b60006007600061165687878761202d565b81526020019081526020016000206040518060a00160405290816000820160009054906101000a900461ffff1661ffff1661ffff1681526020016000820160029054906101000a900460ff1660ff1660ff1681526020016000820160039054906101000a900460ff1660ff1660ff1681526020016000820160049054906101000a900460ff1660ff1660ff1681526020016001820180546116f690614335565b80601f016020809104026020016040519081016040528092919081815260200182805461172290614335565b801561176f5780601f106117445761010080835404028352916020019161176f565b820191906000526020600020905b81548152906001019060200180831161175257829003601f168201915b505050505081525050905080608001519150509392505050565b61179282611f00565b6117d1576040517f08c379a00000000000000000000000000000000000000000000000000000000081526004016117c890613eec565b60405180910390fd5b3373ffffffffffffffffffffffffffffffffffffffff166117f183610f7d565b73ffffffffffffffffffffffffffffffffffffffff1614611847576040517f08c379a000000000000000000000000000000000000000000000000000000000815260040161183e90613c8c565b60405180910390fd5b80600760008481526020019081526020016000206001019080519060200190611871929190612c8c565b505050565b611887611881611f6c565b836120c2565b6118c6576040517f08c379a00000000000000000000000000000000000000000000000000000000081526004016118bd90613ecc565b60405180910390fd5b6118d28484848461260e565b50505050565b60606118e382611f00565b611922576040517f08c379a000000000000000000000000000000000000000000000000000000000815260040161191990613e8c565b60405180910390fd5b600061192c61266a565b9050600081511161194c5760405180602001604052806000815250611977565b80611956846126fc565b604051602001611967929190613bc4565b6040516020818303038152906040525b915050919050565b606061198a82611f00565b6119c9576040517f08c379a00000000000000000000000000000000000000000000000000000000081526004016119c090613eec565b60405180910390fd5b6000600760008481526020019081526020016000206040518060a00160405290816000820160009054906101000a900461ffff1661ffff1661ffff1681526020016000820160029054906101000a900460ff1660ff1660ff1681526020016000820160039054906101000a900460ff1660ff1660ff1681526020016000820160049054906101000a900460ff1660ff1660ff168152602001600182018054611a7090614335565b80601f0160208091040260200160405190810160405280929190818152602001828054611a9c90614335565b8015611ae95780601f10611abe57610100808354040283529160200191611ae9565b820191906000526020600020905b815481529060010190602001808311611acc57829003601f168201915b50505050508152505090508060800151915050919050565b600080600080620afa6c6201518086611b1a91906141a5565b611b24919061414f565b9050600062023ab16000831015611b495762023ab083611b449190614230565b611b4b565b825b611b5591906141a5565b9050600062023ab182611b6891906141d6565b83611b739190614230565b9050600061016d62023ab083611b8991906141a5565b618eac84611b9791906141a5565b6105b485611ba591906141a5565b85611bb09190614230565b611bba919061414f565b611bc49190614230565b611bce91906141a5565b90506000606482611bdf91906141a5565b600483611bec91906141a5565b8361016d611bfa91906141d6565b611c04919061414f565b611c0e9190614230565b83611c199190614230565b9050600060996002836005611c2e91906141d6565b611c38919061414f565b611c4291906141a5565b9050600160056002836099611c5791906141d6565b611c61919061414f565b611c6b91906141a5565b83611c769190614230565b611c80919061414f565b9650600a8110611c9c57600981611c979190614230565b611caa565b600381611ca9919061414f565b5b975060028860ff161115611cbf576000611cc2565b60015b60ff1661019086611cd391906141d6565b84611cde919061414f565b611ce8919061414f565b98505050505050509193909250565b6000600660008473ffffffffffffffffffffffffffffffffffffffff1673ffffffffffffffffffffffffffffffffffffffff16815260200190815260200160002060008373ffffffffffffffffffffffffffffffffffffffff1673ffffffffffffffffffffffffffffffffffffffff16815260200190815260200160002060009054906101000a900460ff16905092915050565b611d93611f6c565b73ffffffffffffffffffffffffffffffffffffffff16611db161116f565b73ffffffffffffffffffffffffffffffffffffffff1614611e07576040517f08c379a0000000000000000000000000000000000000000000000000000000008152600401611dfe90613e4c565b60405180910390fd5b600073ffffffffffffffffffffffffffffffffffffffff168173ffffffffffffffffffffffffffffffffffffffff161415611e77576040517f08c379a0000000000000000000000000000000000000000000000000000000008152600401611e6e90613ccc565b60405180910390fd5b611e808161254a565b50565b600080823b905060008111915050919050565b60007f01ffc9a7000000000000000000000000000000000000000000000000000000007bffffffffffffffffffffffffffffffffffffffffffffffffffffffff1916827bffffffffffffffffffffffffffffffffffffffffffffffffffffffff1916149050919050565b60008073ffffffffffffffffffffffffffffffffffffffff166003600084815260200190815260200160002060009054906101000a900473ffffffffffffffffffffffffffffffffffffffff1673ffffffffffffffffffffffffffffffffffffffff1614159050919050565b600033905090565b816005600083815260200190815260200160002060006101000a81548173ffffffffffffffffffffffffffffffffffffffff021916908373ffffffffffffffffffffffffffffffffffffffff160217905550808273ffffffffffffffffffffffffffffffffffffffff16611fe783610f7d565b73ffffffffffffffffffffffffffffffffffffffff167f8c5be1e5ebec7d5bd14f71427d1e84f3dd0314c0f7b2291e5b200ac8c7c3b92560405160405180910390a45050565b60008160ff1660011115801561205257506120488385610b00565b60ff168260ff1611155b61205b57600080fd5b60018260ff16601f60018660ff166120739190614230565b61207d91906141d6565b61017460018861ffff166120919190614230565b61209b91906141d6565b6120a5919061414f565b6120af919061414f565b6120b99190614230565b90509392505050565b60006120cd82611f00565b61210c576040517f08c379a000000000000000000000000000000000000000000000000000000000815260040161210390613d6c565b60405180910390fd5b600061211783610f7d565b90508073ffffffffffffffffffffffffffffffffffffffff168473ffffffffffffffffffffffffffffffffffffffff16148061218657508373ffffffffffffffffffffffffffffffffffffffff1661216e84610859565b73ffffffffffffffffffffffffffffffffffffffff16145b8061219757506121968185611cf7565b5b91505092915050565b8273ffffffffffffffffffffffffffffffffffffffff166121c082610f7d565b73ffffffffffffffffffffffffffffffffffffffff1614612216576040517f08c379a000000000000000000000000000000000000000000000000000000000815260040161220d90613e6c565b60405180910390fd5b600073ffffffffffffffffffffffffffffffffffffffff168273ffffffffffffffffffffffffffffffffffffffff161415612286576040517f08c379a000000000000000000000000000000000000000000000000000000000815260040161227d90613d2c565b60405180910390fd5b6122918383836128a9565b61229c600082611f74565b6001600460008573ffffffffffffffffffffffffffffffffffffffff1673ffffffffffffffffffffffffffffffffffffffff16815260200190815260200160002060008282546122ec9190614230565b925050819055506001600460008473ffffffffffffffffffffffffffffffffffffffff1673ffffffffffffffffffffffffffffffffffffffff1681526020019081526020016000206000828254612343919061414f565b92505081905550816003600083815260200190815260200160002060006101000a81548173ffffffffffffffffffffffffffffffffffffffff021916908373ffffffffffffffffffffffffffffffffffffffff160217905550808273ffffffffffffffffffffffffffffffffffffffff168473ffffffffffffffffffffffffffffffffffffffff167fddf252ad1be2c89b69c2b068fc378daa952ba7f163c4a11628f55a4df523b3ef60405160405180910390a4505050565b600042448686868660405160200161241996959493929190613ff8565b6040516020818303038152906040528051906020012060001c9050949350505050565b600061244986868661202d565b90506040518060a001604052808761ffff1681526020018660ff1681526020018560ff1681526020018460ff168152602001838152506007600083815260200190815260200160002060008201518160000160006101000a81548161ffff021916908361ffff16021790555060208201518160000160026101000a81548160ff021916908360ff16021790555060408201518160000160036101000a81548160ff021916908360ff16021790555060608201518160000160046101000a81548160ff021916908360ff1602179055506080820151816001019080519060200190612534929190612c8c565b5090505061254233826128ae565b505050505050565b60008060009054906101000a900473ffffffffffffffffffffffffffffffffffffffff169050816000806101000a81548173ffffffffffffffffffffffffffffffffffffffff021916908373ffffffffffffffffffffffffffffffffffffffff1602179055508173ffffffffffffffffffffffffffffffffffffffff168173ffffffffffffffffffffffffffffffffffffffff167f8be0079c531659141344cd1fd0a4f28419497f9722a3daafe3b4186f6b6457e060405160405180910390a35050565b6126198484846121a0565b612625848484846128cc565b612664576040517f08c379a000000000000000000000000000000000000000000000000000000000815260040161265b90613cac565b60405180910390fd5b50505050565b60606008805461267990614335565b80601f01602080910402602001604051908101604052809291908181526020018280546126a590614335565b80156126f25780601f106126c7576101008083540402835291602001916126f2565b820191906000526020600020905b8154815290600101906020018083116126d557829003601f168201915b5050505050905090565b60606000821415612744576040518060400160405280600181526020017f300000000000000000000000000000000000000000000000000000000000000081525090506128a4565b600082905060005b6000821461277657808061275f90614367565b915050600a8261276f91906141a5565b915061274c565b60008167ffffffffffffffff8111156127b8577f4e487b7100000000000000000000000000000000000000000000000000000000600052604160045260246000fd5b6040519080825280601f01601f1916602001820160405280156127ea5781602001600182028036833780820191505090505b5090505b6000851461289d576001826128039190614230565b9150600a8561281291906143e1565b603061281e919061414f565b60f81b81838151811061285a577f4e487b7100000000000000000000000000000000000000000000000000000000600052603260045260246000fd5b60200101907effffffffffffffffffffffffffffffffffffffffffffffffffffffffffffff1916908160001a905350600a8561289691906141a5565b94506127ee565b8093505050505b919050565b505050565b6128c8828260405180602001604052806000815250612a63565b5050565b60006128ed8473ffffffffffffffffffffffffffffffffffffffff16611e83565b15612a56578373ffffffffffffffffffffffffffffffffffffffff1663150b7a02612916611f6c565b8786866040518563ffffffff1660e01b81526004016129389493929190613c03565b602060405180830381600087803b15801561295257600080fd5b505af192505050801561298357506040513d601f19601f8201168201806040525081019061298091906130ac565b60015b612a06573d80600081146129b3576040519150601f19603f3d011682016040523d82523d6000602084013e6129b8565b606091505b506000815114156129fe576040517f08c379a00000000000000000000000000000000000000000000000000000000081526004016129f590613cac565b60405180910390fd5b805181602001fd5b63150b7a0260e01b7bffffffffffffffffffffffffffffffffffffffffffffffffffffffff1916817bffffffffffffffffffffffffffffffffffffffffffffffffffffffff191614915050612a5b565b600190505b949350505050565b612a6d8383612abe565b612a7a60008484846128cc565b612ab9576040517f08c379a0000000000000000000000000000000000000000000000000000000008152600401612ab090613cac565b60405180910390fd5b505050565b600073ffffffffffffffffffffffffffffffffffffffff168273ffffffffffffffffffffffffffffffffffffffff161415612b2e576040517f08c379a0000000000000000000000000000000000000000000000000000000008152600401612b2590613e0c565b60405180910390fd5b612b3781611f00565b15612b77576040517f08c379a0000000000000000000000000000000000000000000000000000000008152600401612b6e90613cec565b60405180910390fd5b612b83600083836128a9565b6001600460008473ffffffffffffffffffffffffffffffffffffffff1673ffffffffffffffffffffffffffffffffffffffff1681526020019081526020016000206000828254612bd3919061414f565b92505081905550816003600083815260200190815260200160002060006101000a81548173ffffffffffffffffffffffffffffffffffffffff021916908373ffffffffffffffffffffffffffffffffffffffff160217905550808273ffffffffffffffffffffffffffffffffffffffff16600073ffffffffffffffffffffffffffffffffffffffff167fddf252ad1be2c89b69c2b068fc378daa952ba7f163c4a11628f55a4df523b3ef60405160405180910390a45050565b828054612c9890614335565b90600052602060002090601f016020900481019282612cba5760008555612d01565b82601f10612cd357805160ff1916838001178555612d01565b82800160010185558215612d01579182015b82811115612d00578251825591602001919060010190612ce5565b5b509050612d0e9190612d12565b5090565b5b80821115612d2b576000816000905550600101612d13565b5090565b6000612d42612d3d846140ac565b61407b565b905082815260208101848484011115612d5a57600080fd5b612d658482856142f3565b509392505050565b6000612d80612d7b846140dc565b61407b565b905082815260208101848484011115612d9857600080fd5b612da38482856142f3565b509392505050565b600081359050612dba816144df565b92915050565b600081359050612dcf816144f6565b92915050565b600081359050612de48161450d565b92915050565b600081519050612df98161450d565b92915050565b600082601f830112612e1057600080fd5b8135612e20848260208601612d2f565b91505092915050565b60008083601f840112612e3b57600080fd5b8235905067ffffffffffffffff811115612e5457600080fd5b602083019150836001820283011115612e6c57600080fd5b9250929050565b600082601f830112612e8457600080fd5b8135612e94848260208601612d6d565b91505092915050565b600081359050612eac81614524565b92915050565b600081359050612ec18161453b565b92915050565b600081359050612ed681614552565b92915050565b600060208284031215612eee57600080fd5b6000612efc84828501612dab565b91505092915050565b60008060408385031215612f1857600080fd5b6000612f2685828601612dab565b9250506020612f3785828601612dab565b9150509250929050565b600080600060608486031215612f5657600080fd5b6000612f6486828701612dab565b9350506020612f7586828701612dab565b9250506040612f8686828701612eb2565b9150509250925092565b60008060008060808587031215612fa657600080fd5b6000612fb487828801612dab565b9450506020612fc587828801612dab565b9350506040612fd687828801612eb2565b925050606085013567ffffffffffffffff811115612ff357600080fd5b612fff87828801612dff565b91505092959194509250565b6000806040838503121561301e57600080fd5b600061302c85828601612dab565b925050602061303d85828601612dc0565b9150509250929050565b6000806040838503121561305a57600080fd5b600061306885828601612dab565b925050602061307985828601612eb2565b9150509250929050565b60006020828403121561309557600080fd5b60006130a384828501612dd5565b91505092915050565b6000602082840312156130be57600080fd5b60006130cc84828501612dea565b91505092915050565b6000602082840312156130e757600080fd5b600082013567ffffffffffffffff81111561310157600080fd5b61310d84828501612e73565b91505092915050565b60006020828403121561312857600080fd5b600061313684828501612e9d565b91505092915050565b60008060006060848603121561315457600080fd5b600061316286828701612e9d565b935050602061317386828701612ec7565b925050604061318486828701612ec7565b9150509250925092565b6000806000806000608086880312156131a657600080fd5b60006131b488828901612e9d565b95505060206131c588828901612ec7565b94505060406131d688828901612ec7565b935050606086013567ffffffffffffffff8111156131f357600080fd5b6131ff88828901612e29565b92509250509295509295909350565b6000806000806080858703121561322457600080fd5b600061323287828801612e9d565b945050602061324387828801612ec7565b935050604061325487828801612ec7565b925050606085013567ffffffffffffffff81111561327157600080fd5b61327d87828801612e73565b91505092959194509250565b60006020828403121561329b57600080fd5b60006132a984828501612eb2565b91505092915050565b600080604083850312156132c557600080fd5b60006132d385828601612eb2565b925050602083013567ffffffffffffffff8111156132f057600080fd5b6132fc85828601612e73565b9150509250929050565b6000806040838503121561331957600080fd5b600061332785828601612ec7565b925050602061333885828601612e9d565b9150509250929050565b61334b81614264565b82525050565b61335a81614276565b82525050565b600061336b8261410c565b6133758185614122565b9350613385818560208601614302565b61338e816144ce565b840191505092915050565b60006133a482614117565b6133ae8185614133565b93506133be818560208601614302565b6133c7816144ce565b840191505092915050565b60006133dd82614117565b6133e78185614144565b93506133f7818560208601614302565b80840191505092915050565b6000613410603083614133565b91507f6f6e6c7920746865206f776e6572206f66207468697320646174652063616e2060008301527f6368616e676520697473207469746c65000000000000000000000000000000006020830152604082019050919050565b6000613476603283614133565b91507f4552433732313a207472616e7366657220746f206e6f6e20455243373231526560008301527f63656976657220696d706c656d656e74657200000000000000000000000000006020830152604082019050919050565b60006134dc602683614133565b91507f4f776e61626c653a206e6577206f776e657220697320746865207a65726f206160008301527f64647265737300000000000000000000000000000000000000000000000000006020830152604082019050919050565b6000613542601c83614133565b91507f4552433732313a20746f6b656e20616c7265616479206d696e746564000000006000830152602082019050919050565b6000613582601f83614133565b91507f636c61696d696e672061206461746520636f7374732031302066696e6e6579006000830152602082019050919050565b60006135c2602483614133565b91507f4552433732313a207472616e7366657220746f20746865207a65726f2061646460008301527f72657373000000000000000000000000000000000000000000000000000000006020830152604082019050919050565b6000613628601983614133565b91507f4552433732313a20617070726f766520746f2063616c6c6572000000000000006000830152602082019050919050565b6000613668602c83614133565b91507f4552433732313a206f70657261746f7220717565727920666f72206e6f6e657860008301527f697374656e7420746f6b656e00000000000000000000000000000000000000006020830152604082019050919050565b60006136ce603883614133565b91507f4552433732313a20617070726f76652063616c6c6572206973206e6f74206f7760008301527f6e6572206e6f7220617070726f76656420666f7220616c6c00000000000000006020830152604082019050919050565b6000613734602a83614133565b91507f4552433732313a2062616c616e636520717565727920666f7220746865207a6560008301527f726f2061646472657373000000000000000000000000000000000000000000006020830152604082019050919050565b600061379a602983614133565b91507f4552433732313a206f776e657220717565727920666f72206e6f6e657869737460008301527f656e7420746f6b656e00000000000000000000000000000000000000000000006020830152604082019050919050565b6000613800601e83614133565b91507f6d6f6e7468206d757374206265206265747765656e203120616e6420313200006000830152602082019050919050565b6000613840602083614133565b91507f4552433732313a206d696e7420746f20746865207a65726f20616464726573736000830152602082019050919050565b6000613880602c83614133565b91507f4552433732313a20617070726f76656420717565727920666f72206e6f6e657860008301527f697374656e7420746f6b656e00000000000000000000000000000000000000006020830152604082019050919050565b60006138e6602083614133565b91507f4f776e61626c653a2063616c6c6572206973206e6f7420746865206f776e65726000830152602082019050919050565b6000613926602983614133565b91507f4552433732313a207472616e73666572206f6620746f6b656e2074686174206960008301527f73206e6f74206f776e00000000000000000000000000000000000000000000006020830152604082019050919050565b600061398c602f83614133565b91507f4552433732314d657461646174613a2055524920717565727920666f72206e6f60008301527f6e6578697374656e7420746f6b656e00000000000000000000000000000000006020830152604082019050919050565b60006139f2602183614133565b91507f4552433732313a20617070726f76616c20746f2063757272656e74206f776e6560008301527f72000000000000000000000000000000000000000000000000000000000000006020830152604082019050919050565b6000613a58603183614133565b91507f4552433732313a207472616e736665722063616c6c6572206973206e6f74206f60008301527f776e6572206e6f7220617070726f7665640000000000000000000000000000006020830152604082019050919050565b6000613abe601083614133565b91507f746f6b656e206e6f74206d696e746564000000000000000000000000000000006000830152602082019050919050565b6000613afe602783614133565b91507f6120646174652066726f6d20746865206675747572652063616e27742062652060008301527f636c61696d6564000000000000000000000000000000000000000000000000006020830152604082019050919050565b6000613b64601e83614133565b91507f79656172206d75737420626520626967676572206f7220657175616c203100006000830152602082019050919050565b613ba0816142ae565b82525050565b613baf816142dc565b82525050565b613bbe816142e6565b82525050565b6000613bd082856133d2565b9150613bdc82846133d2565b91508190509392505050565b6000602082019050613bfd6000830184613342565b92915050565b6000608082019050613c186000830187613342565b613c256020830186613342565b613c326040830185613ba6565b8181036060830152613c448184613360565b905095945050505050565b6000602082019050613c646000830184613351565b92915050565b60006020820190508181036000830152613c848184613399565b905092915050565b60006020820190508181036000830152613ca581613403565b9050919050565b60006020820190508181036000830152613cc581613469565b9050919050565b60006020820190508181036000830152613ce5816134cf565b9050919050565b60006020820190508181036000830152613d0581613535565b9050919050565b60006020820190508181036000830152613d2581613575565b9050919050565b60006020820190508181036000830152613d45816135b5565b9050919050565b60006020820190508181036000830152613d658161361b565b9050919050565b60006020820190508181036000830152613d858161365b565b9050919050565b60006020820190508181036000830152613da5816136c1565b9050919050565b60006020820190508181036000830152613dc581613727565b9050919050565b60006020820190508181036000830152613de58161378d565b9050919050565b60006020820190508181036000830152613e05816137f3565b9050919050565b60006020820190508181036000830152613e2581613833565b9050919050565b60006020820190508181036000830152613e4581613873565b9050919050565b60006020820190508181036000830152613e65816138d9565b9050919050565b60006020820190508181036000830152613e8581613919565b9050919050565b60006020820190508181036000830152613ea58161397f565b9050919050565b60006020820190508181036000830152613ec5816139e5565b9050919050565b60006020820190508181036000830152613ee581613a4b565b9050919050565b60006020820190508181036000830152613f0581613ab1565b9050919050565b60006020820190508181036000830152613f2581613af1565b9050919050565b60006020820190508181036000830152613f4581613b57565b9050919050565b6000606082019050613f616000830186613b97565b613f6e6020830185613bb5565b613f7b6040830184613bb5565b949350505050565b600060a082019050613f986000830188613b97565b613fa56020830187613bb5565b613fb26040830186613bb5565b613fbf6060830185613bb5565b8181036080830152613fd18184613399565b90509695505050505050565b6000602082019050613ff26000830184613ba6565b92915050565b600060c08201905061400d6000830189613ba6565b61401a6020830188613ba6565b6140276040830187613b97565b6140346060830186613bb5565b6140416080830185613bb5565b81810360a08301526140538184613399565b9050979650505050505050565b60006020820190506140756000830184613bb5565b92915050565b6000604051905081810181811067ffffffffffffffff821117156140a2576140a161449f565b5b8060405250919050565b600067ffffffffffffffff8211156140c7576140c661449f565b5b601f19601f8301169050602081019050919050565b600067ffffffffffffffff8211156140f7576140f661449f565b5b601f19601f8301169050602081019050919050565b600081519050919050565b600081519050919050565b600082825260208201905092915050565b600082825260208201905092915050565b600081905092915050565b600061415a826142dc565b9150614165836142dc565b9250827fffffffffffffffffffffffffffffffffffffffffffffffffffffffffffffffff0382111561419a57614199614412565b5b828201905092915050565b60006141b0826142dc565b91506141bb836142dc565b9250826141cb576141ca614441565b5b828204905092915050565b60006141e1826142dc565b91506141ec836142dc565b9250817fffffffffffffffffffffffffffffffffffffffffffffffffffffffffffffffff048311821515161561422557614224614412565b5b828202905092915050565b600061423b826142dc565b9150614246836142dc565b92508282101561425957614258614412565b5b828203905092915050565b600061426f826142bc565b9050919050565b60008115159050919050565b60007fffffffff0000000000000000000000000000000000000000000000000000000082169050919050565b600061ffff82169050919050565b600073ffffffffffffffffffffffffffffffffffffffff82169050919050565b6000819050919050565b600060ff82169050919050565b82818337600083830152505050565b60005b83811015614320578082015181840152602081019050614305565b8381111561432f576000848401525b50505050565b6000600282049050600182168061434d57607f821691505b6020821081141561436157614360614470565b5b50919050565b6000614372826142dc565b91507fffffffffffffffffffffffffffffffffffffffffffffffffffffffffffffffff8214156143a5576143a4614412565b5b600182019050919050565b60006143bb826142ae565b91506143c6836142ae565b9250826143d6576143d5614441565b5b828206905092915050565b60006143ec826142dc565b91506143f7836142dc565b92508261440757614406614441565b5b828206905092915050565b7f4e487b7100000000000000000000000000000000000000000000000000000000600052601160045260246000fd5b7f4e487b7100000000000000000000000000000000000000000000000000000000600052601260045260246000fd5b7f4e487b7100000000000000000000000000000000000000000000000000000000600052602260045260246000fd5b7f4e487b7100000000000000000000000000000000000000000000000000000000600052604160045260246000fd5b6000601f19601f8301169050919050565b6144e881614264565b81146144f357600080fd5b50565b6144ff81614276565b811461450a57600080fd5b50565b61451681614282565b811461452157600080fd5b50565b61452d816142ae565b811461453857600080fd5b50565b614544816142dc565b811461454f57600080fd5b50565b61455b816142e6565b811461456657600080fd5b5056fea264697066735822122074c5d3b19ee7b06990839181b04718cef4830a25f3c39752a6e1231ca40ec3d564736f6c6343000800003352656d656d6265722c2072656d656d6265722c2074686520357468206f66204e6f76656d6265722e417274206973206e657665722066696e69736865642c206f6e6c79206162616e646f6e65642e",
  "immutableReferences": {},
  "source": "// SPDX-License-Identifier: MIT\npragma solidity >=0.4.22 <0.9.0;\n\nimport \"@openzeppelin/contracts/access/Ownable.sol\";\nimport \"@openzeppelin/contracts/token/ERC721/ERC721.sol\";\n\ncontract NotDate is Ownable, ERC721 {\n\n    struct Metadata {\n        uint16 year;\n        uint8 month;\n        uint8 day;\n        uint8 color;\n        string title;\n    }\n\n    mapping(uint256 => Metadata) id_to_date;\n\n    string private _currentBaseURI;\n\n    constructor() ERC721(\"NotDate\", \"NDAT\") {\n        setBaseURI(\"https://date.kie.codes/token/\");\n\n        mint(1, 1, 1, 4, \"ORIGIN\");\n        (uint16 now_year, uint8 now_month, uint8 now_day) = timestampToDate(block.timestamp);\n        mint(now_year, now_month, now_day, 4, \"Date Token Start\");\n        mint(2015, 7, 30, 6, \"ETH GENESIS\");\n        mint(1452, 4, 15, 5, \"Art is never finished, only abandoned.\");\n        mint(1605, 11, 5, 1, \"Remember, remember, the 5th of November.\");\n        mint(1564, 4, 23, 2, \"To be, or not to be\");\n        mint(1969, 7, 20, 3, \"One small step for man\");\n        mint(1986, 6, 12, 0, \"CBD\");\n        mint(1971, 6, 28, 7, \"Elon's Birthday\");\n    }\n\n    function setBaseURI(string memory baseURI) public onlyOwner {\n        _currentBaseURI = baseURI;\n    }\n\n    function _baseURI() internal view virtual override returns (string memory) {\n        return _currentBaseURI;\n    }\n\n    function mint(uint16 year, uint8 month, uint8 day, uint8 color, string memory title) internal {\n        uint256 tokenId = id(year, month, day);\n        \n        id_to_date[tokenId] = Metadata(year, month, day, color, title);\n        _safeMint(msg.sender, tokenId);\n    }\n\n    function claim(uint16 year, uint8 month, uint8 day, string calldata title) external payable {\n        require(msg.value == 0.01 ether, \"claiming a date costs 10 finney\");\n\n        (uint16 now_year, uint8 now_month, uint8 now_day) = timestampToDate(block.timestamp);\n        if ((year > now_year) || \n            (year == now_year && month > now_month) || \n            (year == now_year && month == now_month && day > now_day)) {\n            revert(\"a date from the future can't be claimed\");\n        }\n\n        uint8 color;\n        uint256 r = pseudoRNG(year, month, day, title) % 1000000;\n        if (r < 1000) {\n            color = 7;\n        } else if (r < 6000) {\n            color = 6;\n        } else if (r < 16000) {\n            color = 5;\n        } else if (r < 66000) {\n            color = 4;\n        } else if (r < 166000) {\n            color = 3;\n        } else if (r < 366000) {\n            color = 2;\n        } else if (r < 666000) {\n            color = 1;\n        } else {\n            color = 0;\n        }\n\n        mint(year, month, day, color, title);\n        payable(owner()).transfer(0.01 ether);\n    }\n\n    function ownerOf(uint16 year, uint8 month, uint8 day) public view returns(address) {\n        return ownerOf(id(year, month, day));\n    }\n\n    function id(uint16 year, uint8 month, uint8 day) pure internal returns(uint256) {\n        require(1 <= day && day <= numDaysInMonth(month, year));\n        return (uint256(year)-1)*372 + (uint256(month)-1)*31 + uint256(day)-1;\n    }\n\n    function get(uint256 tokenId) external view returns (uint16 year, uint8 month, uint8 day, uint8 color, string memory title) {\n        require(_exists(tokenId), \"token not minted\");\n        Metadata memory date = id_to_date[tokenId];\n        year = date.year;\n        month = date.month;\n        day = date.day;\n        color = date.color;\n        title = date.title;\n    }\n\n    function titleOf(uint256 tokenId) external view returns (string memory) {\n        require(_exists(tokenId), \"token not minted\");\n        Metadata memory date = id_to_date[tokenId];\n        return date.title;\n    }\n\n    function titleOf(uint16 year, uint8 month, uint8 day) external view returns (string memory) {\n        require(_exists(id(year, month, day)), \"token not minted\");\n        Metadata memory date = id_to_date[id(year, month, day)];\n        return date.title;\n    }\n\n    function changeTitleOf(uint16 year, uint8 month, uint8 day, string memory title) external {\n        require(_exists(id(year, month, day)), \"token not minted\");\n        changeTitleOf(id(year, month, day), title);\n    }\n\n    function changeTitleOf(uint256 tokenId, string memory title) public {\n        require(_exists(tokenId), \"token not minted\");\n        require(ownerOf(tokenId) == msg.sender, \"only the owner of this date can change its title\");\n        id_to_date[tokenId].title = title;\n    }\n\n    function isLeapYear(uint16 year) public pure returns (bool) {\n        require(1 <= year, \"year must be bigger or equal 1\");\n        return (year % 4 == 0) \n            && (year % 100 == 0)\n            && (year % 400 == 0);\n    }\n\n    function numDaysInMonth(uint8 month, uint16 year) public pure returns (uint8) {\n        require(1 <= month && month <= 12, \"month must be between 1 and 12\");\n        require(1 <= year, \"year must be bigger or equal 1\");\n\n        if (month == 1 || month == 3 || month == 5 || month == 7 || month == 8 || month == 10 || month == 12) {\n            return 31;\n        }\n        else if (month == 2) {\n            return isLeapYear(year) ? 29 : 28;\n        }\n        else {\n            return 30;\n        }\n    }\n\n    function timestampToDate(uint timestamp) public pure returns (uint16 year, uint8 month, uint8 day) {\n        uint z = timestamp / 86400 + 719468;\n        uint era = (z >= 0 ? z : z - 146096) / 146097;\n        uint doe = z - era * 146097;\n        uint yoe = (doe - doe/1460 + doe/36524 - doe/146096) / 365;\n        uint doy = doe - (365*yoe + yoe/4 - yoe/100);\n        uint mp = (5*doy + 2)/153;\n\n        day = uint8(doy - (153*mp+2)/5 + 1);\n        month = mp < 10 ? uint8(mp + 3) : uint8(mp - 9);\n        year = uint16(yoe + era * 400 + (month <= 2 ? 1 : 0));\n    }\n\n    function pseudoRNG(uint16 year, uint8 month, uint8 day, string memory title) internal view returns (uint256) {\n        return uint256(keccak256(abi.encode(block.timestamp, block.difficulty, year, month, day, title)));\n    }\n}",
  "sourcePath": "/Users/heesoohwang/truffle/batch_NFT/contracts/NotDate.sol",
  "compiler": {
    "name": "solc",
    "version": "0.8.0+commit.c7dfd78e.Emscripten.clang"
  },
  "schemaVersion": "3.4.3",
  "updatedAt": "2021-09-14T21:58:41.521Z",
  "networkType": "ethereum",
  "devdoc": {
    "kind": "dev",
    "methods": {
      "approve(address,uint256)": {
        "details": "See {IERC721-approve}."
      },
      "balanceOf(address)": {
        "details": "See {IERC721-balanceOf}."
      },
      "getApproved(uint256)": {
        "details": "See {IERC721-getApproved}."
      },
      "isApprovedForAll(address,address)": {
        "details": "See {IERC721-isApprovedForAll}."
      },
      "name()": {
        "details": "See {IERC721Metadata-name}."
      },
      "owner()": {
        "details": "Returns the address of the current owner."
      },
      "ownerOf(uint256)": {
        "details": "See {IERC721-ownerOf}."
      },
      "renounceOwnership()": {
        "details": "Leaves the contract without owner. It will not be possible to call `onlyOwner` functions anymore. Can only be called by the current owner. NOTE: Renouncing ownership will leave the contract without an owner, thereby removing any functionality that is only available to the owner."
      },
      "safeTransferFrom(address,address,uint256)": {
        "details": "See {IERC721-safeTransferFrom}."
      },
      "safeTransferFrom(address,address,uint256,bytes)": {
        "details": "See {IERC721-safeTransferFrom}."
      },
      "setApprovalForAll(address,bool)": {
        "details": "See {IERC721-setApprovalForAll}."
      },
      "supportsInterface(bytes4)": {
        "details": "See {IERC165-supportsInterface}."
      },
      "symbol()": {
        "details": "See {IERC721Metadata-symbol}."
      },
      "tokenURI(uint256)": {
        "details": "See {IERC721Metadata-tokenURI}."
      },
      "transferFrom(address,address,uint256)": {
        "details": "See {IERC721-transferFrom}."
      },
      "transferOwnership(address)": {
        "details": "Transfers ownership of the contract to a new account (`newOwner`). Can only be called by the current owner."
      }
    },
    "version": 1
  },
  "userdoc": {
    "kind": "user",
    "methods": {},
    "version": 1
  }
}